{
  "contractName": "Mutanto",
  "abi": [
    {
      "inputs": [
        {
          "internalType": "string",
          "name": "_metadataURI",
          "type": "string"
        }
      ],
      "stateMutability": "nonpayable",
      "type": "constructor"
    },
    {
      "anonymous": false,
      "inputs": [
        {
          "indexed": true,
          "internalType": "address",
          "name": "account",
          "type": "address"
        },
        {
          "indexed": true,
          "internalType": "address",
          "name": "operator",
          "type": "address"
        },
        {
          "indexed": false,
          "internalType": "bool",
          "name": "approved",
          "type": "bool"
        }
      ],
      "name": "ApprovalForAll",
      "type": "event"
    },
    {
      "anonymous": false,
      "inputs": [
        {
          "indexed": false,
          "internalType": "string",
          "name": "battleName",
          "type": "string"
        },
        {
          "indexed": true,
          "internalType": "address",
          "name": "winner",
          "type": "address"
        },
        {
          "indexed": true,
          "internalType": "address",
          "name": "loser",
          "type": "address"
        }
      ],
      "name": "BattleEnded",
      "type": "event"
    },
    {
      "anonymous": false,
      "inputs": [
        {
          "indexed": true,
          "internalType": "string",
          "name": "battleName",
          "type": "string"
        },
        {
          "indexed": true,
          "internalType": "bool",
          "name": "isFirstMove",
          "type": "bool"
        }
      ],
      "name": "BattleMove",
      "type": "event"
    },
    {
      "anonymous": false,
      "inputs": [
        {
          "indexed": false,
          "internalType": "string",
          "name": "battleName",
          "type": "string"
        },
        {
          "indexed": true,
          "internalType": "address",
          "name": "player1",
          "type": "address"
        },
        {
          "indexed": true,
          "internalType": "address",
          "name": "player2",
          "type": "address"
        }
      ],
      "name": "NewBattle",
      "type": "event"
    },
    {
      "anonymous": false,
      "inputs": [
        {
          "indexed": true,
          "internalType": "address",
          "name": "owner",
          "type": "address"
        },
        {
          "indexed": false,
          "internalType": "uint256",
          "name": "id",
          "type": "uint256"
        },
        {
          "indexed": false,
          "internalType": "uint256",
          "name": "attackStrength",
          "type": "uint256"
        },
        {
          "indexed": false,
          "internalType": "uint256",
          "name": "defenseStrength",
          "type": "uint256"
        }
      ],
      "name": "NewGameToken",
      "type": "event"
    },
    {
      "anonymous": false,
      "inputs": [
        {
          "indexed": true,
          "internalType": "address",
          "name": "owner",
          "type": "address"
        },
        {
          "indexed": false,
          "internalType": "string",
          "name": "name",
          "type": "string"
        }
      ],
      "name": "NewPlayer",
      "type": "event"
    },
    {
      "anonymous": false,
      "inputs": [
        {
          "indexed": true,
          "internalType": "address",
          "name": "previousOwner",
          "type": "address"
        },
        {
          "indexed": true,
          "internalType": "address",
          "name": "newOwner",
          "type": "address"
        }
      ],
      "name": "OwnershipTransferred",
      "type": "event"
    },
    {
      "anonymous": false,
      "inputs": [
        {
          "indexed": false,
          "internalType": "address[2]",
          "name": "damagedPlayers",
          "type": "address[2]"
        }
      ],
      "name": "RoundEnded",
      "type": "event"
    },
    {
      "anonymous": false,
      "inputs": [
        {
          "indexed": true,
          "internalType": "address",
          "name": "operator",
          "type": "address"
        },
        {
          "indexed": true,
          "internalType": "address",
          "name": "from",
          "type": "address"
        },
        {
          "indexed": true,
          "internalType": "address",
          "name": "to",
          "type": "address"
        },
        {
          "indexed": false,
          "internalType": "uint256[]",
          "name": "ids",
          "type": "uint256[]"
        },
        {
          "indexed": false,
          "internalType": "uint256[]",
          "name": "values",
          "type": "uint256[]"
        }
      ],
      "name": "TransferBatch",
      "type": "event"
    },
    {
      "anonymous": false,
      "inputs": [
        {
          "indexed": true,
          "internalType": "address",
          "name": "operator",
          "type": "address"
        },
        {
          "indexed": true,
          "internalType": "address",
          "name": "from",
          "type": "address"
        },
        {
          "indexed": true,
          "internalType": "address",
          "name": "to",
          "type": "address"
        },
        {
          "indexed": false,
          "internalType": "uint256",
          "name": "id",
          "type": "uint256"
        },
        {
          "indexed": false,
          "internalType": "uint256",
          "name": "value",
          "type": "uint256"
        }
      ],
      "name": "TransferSingle",
      "type": "event"
    },
    {
      "anonymous": false,
      "inputs": [
        {
          "indexed": false,
          "internalType": "string",
          "name": "value",
          "type": "string"
        },
        {
          "indexed": true,
          "internalType": "uint256",
          "name": "id",
          "type": "uint256"
        }
      ],
      "name": "URI",
      "type": "event"
    },
    {
      "inputs": [],
      "name": "CELESTION",
      "outputs": [
        {
          "internalType": "uint256",
          "name": "",
          "type": "uint256"
        }
      ],
      "stateMutability": "view",
      "type": "function"
    },
    {
      "inputs": [],
      "name": "DEVIL",
      "outputs": [
        {
          "internalType": "uint256",
          "name": "",
          "type": "uint256"
        }
      ],
      "stateMutability": "view",
      "type": "function"
    },
    {
      "inputs": [],
      "name": "FIREBIRD",
      "outputs": [
        {
          "internalType": "uint256",
          "name": "",
          "type": "uint256"
        }
      ],
      "stateMutability": "view",
      "type": "function"
    },
    {
      "inputs": [],
      "name": "GRIFFIN",
      "outputs": [
        {
          "internalType": "uint256",
          "name": "",
          "type": "uint256"
        }
      ],
      "stateMutability": "view",
      "type": "function"
    },
    {
      "inputs": [],
      "name": "KAMO",
      "outputs": [
        {
          "internalType": "uint256",
          "name": "",
          "type": "uint256"
        }
      ],
      "stateMutability": "view",
      "type": "function"
    },
    {
      "inputs": [],
      "name": "KUKULKAN",
      "outputs": [
        {
          "internalType": "uint256",
          "name": "",
          "type": "uint256"
        }
      ],
      "stateMutability": "view",
      "type": "function"
    },
    {
      "inputs": [],
      "name": "MAX_ATTACK_DEFEND_STRENGTH",
      "outputs": [
        {
          "internalType": "uint256",
          "name": "",
          "type": "uint256"
        }
      ],
      "stateMutability": "view",
      "type": "function"
    },
    {
      "inputs": [
        {
          "internalType": "uint8",
          "name": "_choice",
          "type": "uint8"
        },
        {
          "internalType": "string",
          "name": "_battleName",
          "type": "string"
        }
      ],
      "name": "attackOrDefendChoice",
      "outputs": [],
      "stateMutability": "nonpayable",
      "type": "function"
    },
    {
      "inputs": [
        {
          "internalType": "address",
          "name": "account",
          "type": "address"
        },
        {
          "internalType": "uint256",
          "name": "id",
          "type": "uint256"
        }
      ],
      "name": "balanceOf",
      "outputs": [
        {
          "internalType": "uint256",
          "name": "",
          "type": "uint256"
        }
      ],
      "stateMutability": "view",
      "type": "function"
    },
    {
      "inputs": [
        {
          "internalType": "address[]",
          "name": "accounts",
          "type": "address[]"
        },
        {
          "internalType": "uint256[]",
          "name": "ids",
          "type": "uint256[]"
        }
      ],
      "name": "balanceOfBatch",
      "outputs": [
        {
          "internalType": "uint256[]",
          "name": "",
          "type": "uint256[]"
        }
      ],
      "stateMutability": "view",
      "type": "function"
    },
    {
      "inputs": [],
      "name": "baseURI",
      "outputs": [
        {
          "internalType": "string",
          "name": "",
          "type": "string"
        }
      ],
      "stateMutability": "view",
      "type": "function"
    },
    {
      "inputs": [
        {
          "internalType": "string",
          "name": "",
          "type": "string"
        }
      ],
      "name": "battleInfo",
      "outputs": [
        {
          "internalType": "uint256",
          "name": "",
          "type": "uint256"
        }
      ],
      "stateMutability": "view",
      "type": "function"
    },
    {
      "inputs": [
        {
          "internalType": "uint256",
          "name": "",
          "type": "uint256"
        }
      ],
      "name": "battles",
      "outputs": [
        {
          "internalType": "enum Mutanto.BattleStatus",
          "name": "battleStatus",
          "type": "uint8"
        },
        {
          "internalType": "bytes32",
          "name": "battleHash",
          "type": "bytes32"
        },
        {
          "internalType": "string",
          "name": "name",
          "type": "string"
        },
        {
          "internalType": "address",
          "name": "winner",
          "type": "address"
        }
      ],
      "stateMutability": "view",
      "type": "function"
    },
    {
      "inputs": [
        {
          "internalType": "string",
          "name": "_name",
          "type": "string"
        }
      ],
      "name": "createBattle",
      "outputs": [
        {
          "components": [
            {
              "internalType": "enum Mutanto.BattleStatus",
              "name": "battleStatus",
              "type": "uint8"
            },
            {
              "internalType": "bytes32",
              "name": "battleHash",
              "type": "bytes32"
            },
            {
              "internalType": "string",
              "name": "name",
              "type": "string"
            },
            {
              "internalType": "address[2]",
              "name": "players",
              "type": "address[2]"
            },
            {
              "internalType": "uint8[2]",
              "name": "moves",
              "type": "uint8[2]"
            },
            {
              "internalType": "address",
              "name": "winner",
              "type": "address"
            }
          ],
          "internalType": "struct Mutanto.Battle",
          "name": "",
          "type": "tuple"
        }
      ],
      "stateMutability": "nonpayable",
      "type": "function"
    },
    {
      "inputs": [
        {
          "internalType": "string",
          "name": "_name",
          "type": "string"
        }
      ],
      "name": "createRandomGameToken",
      "outputs": [],
      "stateMutability": "nonpayable",
      "type": "function"
    },
    {
      "inputs": [
        {
          "internalType": "uint256",
          "name": "id",
          "type": "uint256"
        }
      ],
      "name": "exists",
      "outputs": [
        {
          "internalType": "bool",
          "name": "",
          "type": "bool"
        }
      ],
      "stateMutability": "view",
      "type": "function"
    },
    {
      "inputs": [
        {
          "internalType": "uint256",
          "name": "",
          "type": "uint256"
        }
      ],
      "name": "gameTokens",
      "outputs": [
        {
          "internalType": "string",
          "name": "name",
          "type": "string"
        },
        {
          "internalType": "uint256",
          "name": "id",
          "type": "uint256"
        },
        {
          "internalType": "uint256",
          "name": "attackStrength",
          "type": "uint256"
        },
        {
          "internalType": "uint256",
          "name": "defenseStrength",
          "type": "uint256"
        }
      ],
      "stateMutability": "view",
      "type": "function"
    },
    {
      "inputs": [],
      "name": "getAllBattles",
      "outputs": [
        {
          "components": [
            {
              "internalType": "enum Mutanto.BattleStatus",
              "name": "battleStatus",
              "type": "uint8"
            },
            {
              "internalType": "bytes32",
              "name": "battleHash",
              "type": "bytes32"
            },
            {
              "internalType": "string",
              "name": "name",
              "type": "string"
            },
            {
              "internalType": "address[2]",
              "name": "players",
              "type": "address[2]"
            },
            {
              "internalType": "uint8[2]",
              "name": "moves",
              "type": "uint8[2]"
            },
            {
              "internalType": "address",
              "name": "winner",
              "type": "address"
            }
          ],
          "internalType": "struct Mutanto.Battle[]",
          "name": "",
          "type": "tuple[]"
        }
      ],
      "stateMutability": "view",
      "type": "function"
    },
    {
      "inputs": [],
      "name": "getAllPlayerTokens",
      "outputs": [
        {
          "components": [
            {
              "internalType": "string",
              "name": "name",
              "type": "string"
            },
            {
              "internalType": "uint256",
              "name": "id",
              "type": "uint256"
            },
            {
              "internalType": "uint256",
              "name": "attackStrength",
              "type": "uint256"
            },
            {
              "internalType": "uint256",
              "name": "defenseStrength",
              "type": "uint256"
            }
          ],
          "internalType": "struct Mutanto.GameToken[]",
          "name": "",
          "type": "tuple[]"
        }
      ],
      "stateMutability": "view",
      "type": "function"
    },
    {
      "inputs": [],
      "name": "getAllPlayers",
      "outputs": [
        {
          "components": [
            {
              "internalType": "address",
              "name": "playerAddress",
              "type": "address"
            },
            {
              "internalType": "string",
              "name": "playerName",
              "type": "string"
            },
            {
              "internalType": "uint256",
              "name": "playerMana",
              "type": "uint256"
            },
            {
              "internalType": "uint256",
              "name": "playerHealth",
              "type": "uint256"
            },
            {
              "internalType": "bool",
              "name": "inBattle",
              "type": "bool"
            }
          ],
          "internalType": "struct Mutanto.Player[]",
          "name": "",
          "type": "tuple[]"
        }
      ],
      "stateMutability": "view",
      "type": "function"
    },
    {
      "inputs": [
        {
          "internalType": "string",
          "name": "_name",
          "type": "string"
        }
      ],
      "name": "getBattle",
      "outputs": [
        {
          "components": [
            {
              "internalType": "enum Mutanto.BattleStatus",
              "name": "battleStatus",
              "type": "uint8"
            },
            {
              "internalType": "bytes32",
              "name": "battleHash",
              "type": "bytes32"
            },
            {
              "internalType": "string",
              "name": "name",
              "type": "string"
            },
            {
              "internalType": "address[2]",
              "name": "players",
              "type": "address[2]"
            },
            {
              "internalType": "uint8[2]",
              "name": "moves",
              "type": "uint8[2]"
            },
            {
              "internalType": "address",
              "name": "winner",
              "type": "address"
            }
          ],
          "internalType": "struct Mutanto.Battle",
          "name": "",
          "type": "tuple"
        }
      ],
      "stateMutability": "view",
      "type": "function"
    },
    {
      "inputs": [
        {
          "internalType": "string",
          "name": "_battleName",
          "type": "string"
        }
      ],
      "name": "getBattleMoves",
      "outputs": [
        {
          "internalType": "uint256",
          "name": "P1Move",
          "type": "uint256"
        },
        {
          "internalType": "uint256",
          "name": "P2Move",
          "type": "uint256"
        }
      ],
      "stateMutability": "view",
      "type": "function"
    },
    {
      "inputs": [
        {
          "internalType": "address",
          "name": "addr",
          "type": "address"
        }
      ],
      "name": "getPlayer",
      "outputs": [
        {
          "components": [
            {
              "internalType": "address",
              "name": "playerAddress",
              "type": "address"
            },
            {
              "internalType": "string",
              "name": "playerName",
              "type": "string"
            },
            {
              "internalType": "uint256",
              "name": "playerMana",
              "type": "uint256"
            },
            {
              "internalType": "uint256",
              "name": "playerHealth",
              "type": "uint256"
            },
            {
              "internalType": "bool",
              "name": "inBattle",
              "type": "bool"
            }
          ],
          "internalType": "struct Mutanto.Player",
          "name": "",
          "type": "tuple"
        }
      ],
      "stateMutability": "view",
      "type": "function"
    },
    {
      "inputs": [
        {
          "internalType": "address",
          "name": "addr",
          "type": "address"
        }
      ],
      "name": "getPlayerToken",
      "outputs": [
        {
          "components": [
            {
              "internalType": "string",
              "name": "name",
              "type": "string"
            },
            {
              "internalType": "uint256",
              "name": "id",
              "type": "uint256"
            },
            {
              "internalType": "uint256",
              "name": "attackStrength",
              "type": "uint256"
            },
            {
              "internalType": "uint256",
              "name": "defenseStrength",
              "type": "uint256"
            }
          ],
          "internalType": "struct Mutanto.GameToken",
          "name": "",
          "type": "tuple"
        }
      ],
      "stateMutability": "view",
      "type": "function"
    },
    {
      "inputs": [],
      "name": "getTotalSupply",
      "outputs": [
        {
          "internalType": "uint256",
          "name": "",
          "type": "uint256"
        }
      ],
      "stateMutability": "view",
      "type": "function"
    },
    {
      "inputs": [
        {
          "internalType": "address",
          "name": "account",
          "type": "address"
        },
        {
          "internalType": "address",
          "name": "operator",
          "type": "address"
        }
      ],
      "name": "isApprovedForAll",
      "outputs": [
        {
          "internalType": "bool",
          "name": "",
          "type": "bool"
        }
      ],
      "stateMutability": "view",
      "type": "function"
    },
    {
      "inputs": [
        {
          "internalType": "string",
          "name": "_name",
          "type": "string"
        }
      ],
      "name": "isBattle",
      "outputs": [
        {
          "internalType": "bool",
          "name": "",
          "type": "bool"
        }
      ],
      "stateMutability": "view",
      "type": "function"
    },
    {
      "inputs": [
        {
          "internalType": "address",
          "name": "addr",
          "type": "address"
        }
      ],
      "name": "isPlayer",
      "outputs": [
        {
          "internalType": "bool",
          "name": "",
          "type": "bool"
        }
      ],
      "stateMutability": "view",
      "type": "function"
    },
    {
      "inputs": [
        {
          "internalType": "address",
          "name": "addr",
          "type": "address"
        }
      ],
      "name": "isPlayerToken",
      "outputs": [
        {
          "internalType": "bool",
          "name": "",
          "type": "bool"
        }
      ],
      "stateMutability": "view",
      "type": "function"
    },
    {
      "inputs": [
        {
          "internalType": "string",
          "name": "_name",
          "type": "string"
        }
      ],
      "name": "joinBattle",
      "outputs": [
        {
          "components": [
            {
              "internalType": "enum Mutanto.BattleStatus",
              "name": "battleStatus",
              "type": "uint8"
            },
            {
              "internalType": "bytes32",
              "name": "battleHash",
              "type": "bytes32"
            },
            {
              "internalType": "string",
              "name": "name",
              "type": "string"
            },
            {
              "internalType": "address[2]",
              "name": "players",
              "type": "address[2]"
            },
            {
              "internalType": "uint8[2]",
              "name": "moves",
              "type": "uint8[2]"
            },
            {
              "internalType": "address",
              "name": "winner",
              "type": "address"
            }
          ],
          "internalType": "struct Mutanto.Battle",
          "name": "",
          "type": "tuple"
        }
      ],
      "stateMutability": "nonpayable",
      "type": "function"
    },
    {
      "inputs": [],
      "name": "owner",
      "outputs": [
        {
          "internalType": "address",
          "name": "",
          "type": "address"
        }
      ],
      "stateMutability": "view",
      "type": "function"
    },
    {
      "inputs": [
        {
          "internalType": "address",
          "name": "",
          "type": "address"
        }
      ],
      "name": "playerInfo",
      "outputs": [
        {
          "internalType": "uint256",
          "name": "",
          "type": "uint256"
        }
      ],
      "stateMutability": "view",
      "type": "function"
    },
    {
      "inputs": [
        {
          "internalType": "address",
          "name": "",
          "type": "address"
        }
      ],
      "name": "playerTokenInfo",
      "outputs": [
        {
          "internalType": "uint256",
          "name": "",
          "type": "uint256"
        }
      ],
      "stateMutability": "view",
      "type": "function"
    },
    {
      "inputs": [
        {
          "internalType": "uint256",
          "name": "",
          "type": "uint256"
        }
      ],
      "name": "players",
      "outputs": [
        {
          "internalType": "address",
          "name": "playerAddress",
          "type": "address"
        },
        {
          "internalType": "string",
          "name": "playerName",
          "type": "string"
        },
        {
          "internalType": "uint256",
          "name": "playerMana",
          "type": "uint256"
        },
        {
          "internalType": "uint256",
          "name": "playerHealth",
          "type": "uint256"
        },
        {
          "internalType": "bool",
          "name": "inBattle",
          "type": "bool"
        }
      ],
      "stateMutability": "view",
      "type": "function"
    },
    {
      "inputs": [
        {
          "internalType": "string",
          "name": "_battleName",
          "type": "string"
        }
      ],
      "name": "quitBattle",
      "outputs": [],
      "stateMutability": "nonpayable",
      "type": "function"
    },
    {
      "inputs": [
        {
          "internalType": "string",
          "name": "_name",
          "type": "string"
        },
        {
          "internalType": "string",
          "name": "_gameTokenName",
          "type": "string"
        }
      ],
      "name": "registerPlayer",
      "outputs": [],
      "stateMutability": "nonpayable",
      "type": "function"
    },
    {
      "inputs": [],
      "name": "renounceOwnership",
      "outputs": [],
      "stateMutability": "nonpayable",
      "type": "function"
    },
    {
      "inputs": [
        {
          "internalType": "address",
          "name": "from",
          "type": "address"
        },
        {
          "internalType": "address",
          "name": "to",
          "type": "address"
        },
        {
          "internalType": "uint256[]",
          "name": "ids",
          "type": "uint256[]"
        },
        {
          "internalType": "uint256[]",
          "name": "amounts",
          "type": "uint256[]"
        },
        {
          "internalType": "bytes",
          "name": "data",
          "type": "bytes"
        }
      ],
      "name": "safeBatchTransferFrom",
      "outputs": [],
      "stateMutability": "nonpayable",
      "type": "function"
    },
    {
      "inputs": [
        {
          "internalType": "address",
          "name": "from",
          "type": "address"
        },
        {
          "internalType": "address",
          "name": "to",
          "type": "address"
        },
        {
          "internalType": "uint256",
          "name": "id",
          "type": "uint256"
        },
        {
          "internalType": "uint256",
          "name": "amount",
          "type": "uint256"
        },
        {
          "internalType": "bytes",
          "name": "data",
          "type": "bytes"
        }
      ],
      "name": "safeTransferFrom",
      "outputs": [],
      "stateMutability": "nonpayable",
      "type": "function"
    },
    {
      "inputs": [
        {
          "internalType": "address",
          "name": "operator",
          "type": "address"
        },
        {
          "internalType": "bool",
          "name": "approved",
          "type": "bool"
        }
      ],
      "name": "setApprovalForAll",
      "outputs": [],
      "stateMutability": "nonpayable",
      "type": "function"
    },
    {
      "inputs": [
        {
          "internalType": "string",
          "name": "newuri",
          "type": "string"
        }
      ],
      "name": "setURI",
      "outputs": [],
      "stateMutability": "nonpayable",
      "type": "function"
    },
    {
      "inputs": [
        {
          "internalType": "bytes4",
          "name": "interfaceId",
          "type": "bytes4"
        }
      ],
      "name": "supportsInterface",
      "outputs": [
        {
          "internalType": "bool",
          "name": "",
          "type": "bool"
        }
      ],
      "stateMutability": "view",
      "type": "function"
    },
    {
      "inputs": [
        {
          "internalType": "uint256",
          "name": "tokenId",
          "type": "uint256"
        }
      ],
      "name": "tokenURI",
      "outputs": [
        {
          "internalType": "string",
          "name": "",
          "type": "string"
        }
      ],
      "stateMutability": "view",
      "type": "function"
    },
    {
      "inputs": [],
      "name": "totalSupply",
      "outputs": [
        {
          "internalType": "uint256",
          "name": "",
          "type": "uint256"
        }
      ],
      "stateMutability": "view",
      "type": "function"
    },
    {
      "inputs": [
        {
          "internalType": "uint256",
          "name": "id",
          "type": "uint256"
        }
      ],
      "name": "totalSupply",
      "outputs": [
        {
          "internalType": "uint256",
          "name": "",
          "type": "uint256"
        }
      ],
      "stateMutability": "view",
      "type": "function"
    },
    {
      "inputs": [
        {
          "internalType": "address",
          "name": "newOwner",
          "type": "address"
        }
      ],
      "name": "transferOwnership",
      "outputs": [],
      "stateMutability": "nonpayable",
      "type": "function"
    },
    {
      "inputs": [
        {
          "internalType": "uint256",
          "name": "",
          "type": "uint256"
        }
      ],
      "name": "uri",
      "outputs": [
        {
          "internalType": "string",
          "name": "",
          "type": "string"
        }
      ],
      "stateMutability": "view",
      "type": "function"
    }
  ],
  "bytecode": "0x60806040523480156200001157600080fd5b50d380156200001f57600080fd5b50d280156200002d57600080fd5b50604051620092fa380380620092fa8339818101604052810190620000539190620007a3565b806200006581620000b660201b60201c565b50620000866200007a620000d260201b60201c565b620000da60201b60201c565b80600590805190602001906200009e92919062000552565b50620000af620001a060201b60201c565b50620009a7565b8060029080519060200190620000ce92919062000552565b5050565b600033905090565b6000600360009054906101000a900473ffffffffffffffffffffffffffffffffffffffff16905081600360006101000a81548173ffffffffffffffffffffffffffffffffffffffff021916908373ffffffffffffffffffffffffffffffffffffffff1602179055508173ffffffffffffffffffffffffffffffffffffffff168173ffffffffffffffffffffffffffffffffffffffff167f8be0079c531659141344cd1fd0a4f28419497f9722a3daafe3b4186f6b6457e060405160405180910390a35050565b600b604051806080016040528060405180602001604052806000815250815260200160008152602001600081526020016000815250908060018154018082558091505060019003906000526020600020906004020160009091909190915060008201518160000190805190602001906200021c92919062000552565b506020820151816001015560408201518160020155606082015181600301555050600a6040518060a00160405280600073ffffffffffffffffffffffffffffffffffffffff168152602001604051806020016040528060008152508152602001600081526020016000815260200160001515815250908060018154018082558091505060019003906000526020600020906005020160009091909190915060008201518160000160006101000a81548173ffffffffffffffffffffffffffffffffffffffff021916908373ffffffffffffffffffffffffffffffffffffffff16021790555060208201518160010190805190602001906200031f92919062000552565b50604082015181600201556060820151816003015560808201518160040160006101000a81548160ff0219169083151502179055505050600c6040518060c00160405280600060028111156200037a5762000379620008f5565b5b81526020016000801b81526020016040518060200160405280600081525081526020016040518060400160405280600073ffffffffffffffffffffffffffffffffffffffff1673ffffffffffffffffffffffffffffffffffffffff168152602001600073ffffffffffffffffffffffffffffffffffffffff1673ffffffffffffffffffffffffffffffffffffffff1681525081526020016040518060400160405280600060ff168152602001600060ff168152508152602001600073ffffffffffffffffffffffffffffffffffffffff16815250908060018154018082558091505060019003906000526020600020906007020160009091909190915060008201518160000160006101000a81548160ff02191690836002811115620004a557620004a4620008f5565b5b0217905550602082015181600101556040820151816002019080519060200190620004d292919062000552565b50606082015181600301906002620004ec929190620005e3565b506080820151816005019060026200050692919062000665565b5060a08201518160060160006101000a81548173ffffffffffffffffffffffffffffffffffffffff021916908373ffffffffffffffffffffffffffffffffffffffff1602179055505050565b828054620005609062000889565b90600052602060002090601f016020900481019282620005845760008555620005d0565b82601f106200059f57805160ff1916838001178555620005d0565b82800160010185558215620005d0579182015b82811115620005cf578251825591602001919060010190620005b2565b5b509050620005df919062000706565b5090565b826002810192821562000652579160200282015b82811115620006515782518260006101000a81548173ffffffffffffffffffffffffffffffffffffffff021916908373ffffffffffffffffffffffffffffffffffffffff16021790555091602001919060010190620005f7565b5b50905062000661919062000706565b5090565b826002601f01602090048101928215620006f35791602002820160005b83821115620006c257835183826101000a81548160ff021916908360ff160217905550926020019260010160208160000104928301926001030262000682565b8015620006f15782816101000a81549060ff0219169055600101602081600001049283019260010302620006c2565b505b50905062000702919062000706565b5090565b5b808211156200072157600081600090555060010162000707565b5090565b60006200073c62000736846200081d565b620007f4565b9050828152602081018484840111156200075b576200075a62000987565b5b6200076884828562000853565b509392505050565b600082601f83011262000788576200078762000982565b5b81516200079a84826020860162000725565b91505092915050565b600060208284031215620007bc57620007bb62000991565b5b600082015167ffffffffffffffff811115620007dd57620007dc6200098c565b5b620007eb8482850162000770565b91505092915050565b60006200080062000813565b90506200080e8282620008bf565b919050565b6000604051905090565b600067ffffffffffffffff8211156200083b576200083a62000953565b5b620008468262000996565b9050602081019050919050565b60005b838110156200087357808201518184015260208101905062000856565b8381111562000883576000848401525b50505050565b60006002820490506001821680620008a257607f821691505b60208210811415620008b957620008b862000924565b5b50919050565b620008ca8262000996565b810181811067ffffffffffffffff82111715620008ec57620008eb62000953565b5b80604052505050565b7f4e487b7100000000000000000000000000000000000000000000000000000000600052602160045260246000fd5b7f4e487b7100000000000000000000000000000000000000000000000000000000600052602260045260246000fd5b7f4e487b7100000000000000000000000000000000000000000000000000000000600052604160045260246000fd5b600080fd5b600080fd5b600080fd5b600080fd5b6000601f19601f8301169050919050565b61894380620009b76000396000f3fe608060405234801561001057600080fd5b50d3801561001d57600080fd5b50d2801561002a57600080fd5b50600436106102ae5760003560e01c8063703730a511610181578063bf034b69116100e8578063e985e9c5116100a1578063e985e9c5146108e0578063efa1c48214610910578063f1da73391461092e578063f242432a1461094c578063f2fde38b14610968578063f71d96cb14610984576102ae565b8063bf034b69146107f3578063bf103a4d14610826578063c4e41b2214610856578063c87b56dd14610874578063d2198cc5146108a4578063de96cefc146108c2576102ae565b80639e4ecd111161013a5780639e4ecd11146107215780639ec40aa31461073f578063a1b4f57c1461075b578063a22cb4651461078b578063ba274956146107a7578063bd85b039146107c3576102ae565b8063703730a514610672578063715018a614610690578063845f433b1461069a5780638da5cb5b146106b6578063996d7bea146106d45780639b09cc87146106f0576102ae565b806318160ddd116102255780634e1273f4116101de5780634e1273f4146105735780634f558e79146105a35780635c12cd4b146105d35780635c93fc3d14610603578063606d2e96146106215780636c0360eb14610654576102ae565b806318160ddd146104795780632711162e146104975780632ca04522146104c75780632eb2c2d6146104f75780633835e2b5146105135780634b11469114610543576102ae565b806309c95e101161027757806309c95e101461036b5780630daea2cd1461039b5780630e89341c146103b957806310898e4c146103e95780631107ae3d1461041957806316801d1714610449576102ae565b8062fdd58e146102b3578063015a3792146102e357806301ffc9a71461030157806302fe5305146103315780630677aa4e1461034d575b600080fd5b6102cd60048036038101906102c89190615f12565b6109b8565b6040516102da91906176e9565b60405180910390f35b6102eb610a81565b6040516102f891906170d1565b60405180910390f35b61031b60048036038101906103169190615fca565b610b90565b604051610328919061716e565b60405180910390f35b61034b60048036038101906103469190616024565b610c72565b005b610355610c86565b60405161036291906176e9565b60405180910390f35b61038560048036038101906103809190615cff565b610c8b565b604051610392919061716e565b60405180910390f35b6103a3610ce7565b6040516103b091906176e9565b60405180910390f35b6103d360048036038101906103ce91906160e5565b610cec565b6040516103e091906171d5565b60405180910390f35b61040360048036038101906103fe9190615cff565b610d80565b60405161041091906176a5565b60405180910390f35b610433600480360381019061042e9190616024565b610ef3565b604051610440919061716e565b60405180910390f35b610463600480360381019061045e9190616024565b610f2e565b6040516104709190617683565b60405180910390f35b6104816111e3565b60405161048e91906176e9565b60405180910390f35b6104b160048036038101906104ac9190615cff565b6111e9565b6040516104be91906176e9565b60405180910390f35b6104e160048036038101906104dc9190616024565b611201565b6040516104ee9190617683565b60405180910390f35b610511600480360381019061050c9190615d6c565b6114dd565b005b61052d60048036038101906105289190616024565b61157e565b60405161053a91906176e9565b60405180910390f35b61055d60048036038101906105589190615cff565b6115ac565b60405161056a91906176e9565b60405180910390f35b61058d60048036038101906105889190615f52565b6115c4565b60405161059a9190617115565b60405180910390f35b6105bd60048036038101906105b891906160e5565b6116dd565b6040516105ca919061716e565b60405180910390f35b6105ed60048036038101906105e89190615cff565b6116f1565b6040516105fa91906176c7565b60405180910390f35b61060b6118cb565b60405161061891906170af565b60405180910390f35b61063b600480360381019061063691906160e5565b611b3d565b60405161064b9493929190617189565b60405180910390f35b61065c611c32565b60405161066991906171d5565b60405180910390f35b61067a611cc0565b60405161068791906176e9565b60405180910390f35b610698611cc5565b005b6106b460048036038101906106af919061606d565b611cd9565b005b6106be611ed3565b6040516106cb9190616f5d565b60405180910390f35b6106ee60048036038101906106e99190616024565b611efd565b005b61070a60048036038101906107059190616024565b61208c565b604051610718929190617704565b60405180910390f35b6107296120e6565b60405161073691906176e9565b60405180910390f35b61075960048036038101906107549190616024565b6120eb565b005b61077560048036038101906107709190616024565b61218d565b6040516107829190617683565b60405180910390f35b6107a560048036038101906107a09190615ed2565b612530565b005b6107c160048036038101906107bc9190616112565b612546565b005b6107dd60048036038101906107d891906160e5565b61291f565b6040516107ea91906176e9565b60405180910390f35b61080d600480360381019061080891906160e5565b61293c565b60405161081d94939291906171f7565b60405180910390f35b610840600480360381019061083b9190615cff565b612a04565b60405161084d919061716e565b60405180910390f35b61085e612a60565b60405161086b91906176e9565b60405180910390f35b61088e600480360381019061088991906160e5565b612a6a565b60405161089b91906171d5565b60405180910390f35b6108ac612a9e565b6040516108b991906176e9565b60405180910390f35b6108ca612aa3565b6040516108d791906176e9565b60405180910390f35b6108fa60048036038101906108f59190615d2c565b612aa8565b604051610907919061716e565b60405180910390f35b610918612b3c565b60405161092591906170f3565b60405180910390f35b610936612cb2565b60405161094391906176e9565b60405180910390f35b61096660048036038101906109619190615e3b565b612cb7565b005b610982600480360381019061097d9190615cff565b612d58565b005b61099e600480360381019061099991906160e5565b612ddc565b6040516109af95949392919061703a565b60405180910390f35b60008073ffffffffffffffffffffffffffffffffffffffff168373ffffffffffffffffffffffffffffffffffffffff161415610a29576040517f08c379a0000000000000000000000000000000000000000000000000000000008152600401610a2090617343565b60405180910390fd5b60008083815260200190815260200160002060008473ffffffffffffffffffffffffffffffffffffffff1673ffffffffffffffffffffffffffffffffffffffff16815260200190815260200160002054905092915050565b6060600b805480602002602001604051908101604052809291908181526020016000905b82821015610b875783829060005260206000209060040201604051806080016040529081600082018054610ad890617c9a565b80601f0160208091040260200160405190810160405280929190818152602001828054610b0490617c9a565b8015610b515780601f10610b2657610100808354040283529160200191610b51565b820191906000526020600020905b815481529060010190602001808311610b3457829003601f168201915b50505050508152602001600182015481526020016002820154815260200160038201548152505081526020019060010190610aa5565b50505050905090565b60007fd9b67a26000000000000000000000000000000000000000000000000000000007bffffffffffffffffffffffffffffffffffffffffffffffffffffffff1916827bffffffffffffffffffffffffffffffffffffffffffffffffffffffff19161480610c5b57507f0e89341c000000000000000000000000000000000000000000000000000000007bffffffffffffffffffffffffffffffffffffffffffffffffffffffff1916827bffffffffffffffffffffffffffffffffffffffffffffffffffffffff1916145b80610c6b5750610c6a82612ed7565b5b9050919050565b610c7a612f41565b610c8381612fbf565b50565b600381565b600080600760008473ffffffffffffffffffffffffffffffffffffffff1673ffffffffffffffffffffffffffffffffffffffff168152602001908152602001600020541415610cdd5760009050610ce2565b600190505b919050565b600a81565b606060028054610cfb90617c9a565b80601f0160208091040260200160405190810160405280929190818152602001828054610d2790617c9a565b8015610d745780601f10610d4957610100808354040283529160200191610d74565b820191906000526020600020905b815481529060010190602001808311610d5757829003601f168201915b50505050509050919050565b610d88615780565b610d9182612a04565b610dd0576040517f08c379a0000000000000000000000000000000000000000000000000000000008152600401610dc7906172c3565b60405180910390fd5b600b600860008473ffffffffffffffffffffffffffffffffffffffff1673ffffffffffffffffffffffffffffffffffffffff1681526020019081526020016000205481548110610e2357610e22617ebc565b5b9060005260206000209060040201604051806080016040529081600082018054610e4c90617c9a565b80601f0160208091040260200160405190810160405280929190818152602001828054610e7890617c9a565b8015610ec55780601f10610e9a57610100808354040283529160200191610ec5565b820191906000526020600020905b815481529060010190602001808311610ea857829003601f168201915b5050505050815260200160018201548152602001600282015481526020016003820154815250509050919050565b600080600983604051610f069190616ea3565b9081526020016040518091039020541415610f245760009050610f29565b600190505b919050565b610f366157a8565b610f3f82610ef3565b610f7e576040517f08c379a0000000000000000000000000000000000000000000000000000000008152600401610f75906174e3565b60405180910390fd5b600c600983604051610f909190616ea3565b90815260200160405180910390205481548110610fb057610faf617ebc565b5b90600052602060002090600702016040518060c00160405290816000820160009054906101000a900460ff166002811115610fee57610fed617e5e565b5b600281111561100057610fff617e5e565b5b81526020016001820154815260200160028201805461101e90617c9a565b80601f016020809104026020016040519081016040528092919081815260200182805461104a90617c9a565b80156110975780601f1061106c57610100808354040283529160200191611097565b820191906000526020600020905b81548152906001019060200180831161107a57829003601f168201915b5050505050815260200160038201600280602002604051908101604052809291908260028015611112576020028201915b8160009054906101000a900473ffffffffffffffffffffffffffffffffffffffff1673ffffffffffffffffffffffffffffffffffffffff16815260200190600101908083116110c8575b505050505081526020016005820160028060200260405190810160405280929190826002801561117d576020028201916000905b82829054906101000a900460ff1660ff16815260200190600101906020826000010492830192600103820291508084116111465790505b505050505081526020016006820160009054906101000a900473ffffffffffffffffffffffffffffffffffffffff1673ffffffffffffffffffffffffffffffffffffffff1673ffffffffffffffffffffffffffffffffffffffff16815250509050919050565b60065481565b60086020528060005260406000206000915090505481565b6112096157a8565b61121233610c8b565b611251576040517f08c379a000000000000000000000000000000000000000000000000000000000815260040161124890617383565b60405180910390fd5b61125a82610ef3565b1561129a576040517f08c379a000000000000000000000000000000000000000000000000000000000815260040161129190617403565b60405180910390fd5b6000826040516020016112ad91906171d5565b60405160208183030381529060405280519060200120905060006040518060c00160405280600060028111156112e6576112e5617e5e565b5b815260200183815260200185815260200160405180604001604052803373ffffffffffffffffffffffffffffffffffffffff1673ffffffffffffffffffffffffffffffffffffffff168152602001600073ffffffffffffffffffffffffffffffffffffffff1673ffffffffffffffffffffffffffffffffffffffff1681525081526020016040518060400160405280600060ff168152602001600060ff168152508152602001600073ffffffffffffffffffffffffffffffffffffffff1681525090506000600c805490509050806009866040516113c49190616ea3565b908152602001604051809103902081905550600c82908060018154018082558091505060019003906000526020600020906007020160009091909190915060008201518160000160006101000a81548160ff0219169083600281111561142d5761142c617e5e565b5b0217905550602082015181600101556040820151816002019080519060200190611458929190615815565b5060608201518160030190600261147092919061589b565b50608082015181600501906002611488929190615918565b5060a08201518160060160006101000a81548173ffffffffffffffffffffffffffffffffffffffff021916908373ffffffffffffffffffffffffffffffffffffffff1602179055505050819350505050919050565b6114e5612fd9565b73ffffffffffffffffffffffffffffffffffffffff168573ffffffffffffffffffffffffffffffffffffffff16148061152b575061152a85611525612fd9565b612aa8565b5b61156a576040517f08c379a000000000000000000000000000000000000000000000000000000000815260040161156190617263565b60405180910390fd5b6115778585858585612fe1565b5050505050565b6009818051602081018201805184825260208301602085012081835280955050505050506000915090505481565b60076020528060005260406000206000915090505481565b6060815183511461160a576040517f08c379a000000000000000000000000000000000000000000000000000000000815260040161160190617583565b60405180910390fd5b6000835167ffffffffffffffff81111561162757611626617eeb565b5b6040519080825280602002602001820160405280156116555781602001602082028036833780820191505090505b50905060005b84518110156116d2576116a285828151811061167a57611679617ebc565b5b602002602001015185838151811061169557611694617ebc565b5b60200260200101516109b8565b8282815181106116b5576116b4617ebc565b5b602002602001018181525050806116cb90617cfd565b905061165b565b508091505092915050565b6000806116e98361291f565b119050919050565b6116f96159b2565b61170282610c8b565b611741576040517f08c379a000000000000000000000000000000000000000000000000000000000815260040161173890617663565b60405180910390fd5b600a600760008473ffffffffffffffffffffffffffffffffffffffff1673ffffffffffffffffffffffffffffffffffffffff168152602001908152602001600020548154811061179457611793617ebc565b5b90600052602060002090600502016040518060a00160405290816000820160009054906101000a900473ffffffffffffffffffffffffffffffffffffffff1673ffffffffffffffffffffffffffffffffffffffff1673ffffffffffffffffffffffffffffffffffffffff16815260200160018201805461181390617c9a565b80601f016020809104026020016040519081016040528092919081815260200182805461183f90617c9a565b801561188c5780601f106118615761010080835404028352916020019161188c565b820191906000526020600020905b81548152906001019060200180831161186f57829003601f168201915b5050505050815260200160028201548152602001600382015481526020016004820160009054906101000a900460ff1615151515815250509050919050565b6060600c805480602002602001604051908101604052809291908181526020016000905b82821015611b3457838290600052602060002090600702016040518060c00160405290816000820160009054906101000a900460ff16600281111561193757611936617e5e565b5b600281111561194957611948617e5e565b5b81526020016001820154815260200160028201805461196790617c9a565b80601f016020809104026020016040519081016040528092919081815260200182805461199390617c9a565b80156119e05780601f106119b5576101008083540402835291602001916119e0565b820191906000526020600020905b8154815290600101906020018083116119c357829003601f168201915b5050505050815260200160038201600280602002604051908101604052809291908260028015611a5b576020028201915b8160009054906101000a900473ffffffffffffffffffffffffffffffffffffffff1673ffffffffffffffffffffffffffffffffffffffff1681526020019060010190808311611a11575b5050505050815260200160058201600280602002604051908101604052809291908260028015611ac6576020028201916000905b82829054906101000a900460ff1660ff1681526020019060010190602082600001049283019260010382029150808411611a8f5790505b505050505081526020016006820160009054906101000a900473ffffffffffffffffffffffffffffffffffffffff1673ffffffffffffffffffffffffffffffffffffffff1673ffffffffffffffffffffffffffffffffffffffff1681525050815260200190600101906118ef565b50505050905090565b600c8181548110611b4d57600080fd5b90600052602060002090600702016000915090508060000160009054906101000a900460ff1690806001015490806002018054611b8990617c9a565b80601f0160208091040260200160405190810160405280929190818152602001828054611bb590617c9a565b8015611c025780601f10611bd757610100808354040283529160200191611c02565b820191906000526020600020905b815481529060010190602001808311611be557829003601f168201915b5050505050908060060160009054906101000a900473ffffffffffffffffffffffffffffffffffffffff16905084565b60058054611c3f90617c9a565b80601f0160208091040260200160405190810160405280929190818152602001828054611c6b90617c9a565b8015611cb85780601f10611c8d57610100808354040283529160200191611cb8565b820191906000526020600020905b815481529060010190602001808311611c9b57829003601f168201915b505050505081565b600281565b611ccd612f41565b611cd76000613303565b565b611ce233610c8b565b15611d22576040517f08c379a0000000000000000000000000000000000000000000000000000000008152600401611d1990617463565b60405180910390fd5b6000600a805490509050600a6040518060a001604052803373ffffffffffffffffffffffffffffffffffffffff168152602001858152602001600a81526020016019815260200160001515815250908060018154018082558091505060019003906000526020600020906005020160009091909190915060008201518160000160006101000a81548173ffffffffffffffffffffffffffffffffffffffff021916908373ffffffffffffffffffffffffffffffffffffffff1602179055506020820151816001019080519060200190611dfc929190615815565b50604082015181600201556060820151816003015560808201518160040160006101000a81548160ff021916908315150217905550505080600760003373ffffffffffffffffffffffffffffffffffffffff1673ffffffffffffffffffffffffffffffffffffffff16815260200190815260200160002081905550611e80826120eb565b3373ffffffffffffffffffffffffffffffffffffffff167f81ef79d1cda814a60c0fc60792e648a06d9c6bae67176346d1cc8b63030bfccd84604051611ec691906171d5565b60405180910390a2505050565b6000600360009054906101000a900473ffffffffffffffffffffffffffffffffffffffff16905090565b6000611f0882610f2e565b90503373ffffffffffffffffffffffffffffffffffffffff168160600151600060028110611f3957611f38617ebc565b5b602002015173ffffffffffffffffffffffffffffffffffffffff161480611fa757503373ffffffffffffffffffffffffffffffffffffffff168160600151600160028110611f8a57611f89617ebc565b5b602002015173ffffffffffffffffffffffffffffffffffffffff16145b611fe6576040517f08c379a0000000000000000000000000000000000000000000000000000000008152600401611fdd90617643565b60405180910390fd5b3373ffffffffffffffffffffffffffffffffffffffff16816060015160006002811061201557612014617ebc565b5b602002015173ffffffffffffffffffffffffffffffffffffffff16146120605761205b81606001516000600281106120505761204f617ebc565b5b6020020151826133c9565b612087565b612086816060015160016002811061207b5761207a617ebc565b5b6020020151826133c9565b5b505050565b600080600061209a84610f2e565b905080608001516000600281106120b4576120b3617ebc565b5b602002015160ff16925080608001516001600281106120d6576120d5617ebc565b5b602002015160ff16915050915091565b600581565b6120f4336116f1565b6080015115612138576040517f08c379a000000000000000000000000000000000000000000000000000000000815260040161212f90617623565b60405180910390fd5b61214133610c8b565b612180576040517f08c379a000000000000000000000000000000000000000000000000000000000815260040161217790617383565b60405180910390fd5b612189816137a1565b5050565b6121956157a8565b60006121a083610f2e565b9050600060028111156121b6576121b5617e5e565b5b816000015160028111156121cd576121cc617e5e565b5b1461220d576040517f08c379a0000000000000000000000000000000000000000000000000000000008152600401612204906173e3565b60405180910390fd5b3373ffffffffffffffffffffffffffffffffffffffff16816060015160006002811061223c5761223b617ebc565b5b602002015173ffffffffffffffffffffffffffffffffffffffff161415612298576040517f08c379a000000000000000000000000000000000000000000000000000000000815260040161228f90617483565b60405180910390fd5b6122a1336116f1565b60800151156122e5576040517f08c379a00000000000000000000000000000000000000000000000000000000081526004016122dc90617363565b60405180910390fd5b6001816000019060028111156122fe576122fd617e5e565b5b9081600281111561231257612311617e5e565b5b8152505033816060015160016002811061232f5761232e617ebc565b5b602002019073ffffffffffffffffffffffffffffffffffffffff16908173ffffffffffffffffffffffffffffffffffffffff168152505061237083826139ca565b6001600a6007600084606001516000600281106123905761238f617ebc565b5b602002015173ffffffffffffffffffffffffffffffffffffffff1673ffffffffffffffffffffffffffffffffffffffff16815260200190815260200160002054815481106123e1576123e0617ebc565b5b906000526020600020906005020160040160006101000a81548160ff0219169083151502179055506001600a60076000846060015160016002811061242957612428617ebc565b5b602002015173ffffffffffffffffffffffffffffffffffffffff1673ffffffffffffffffffffffffffffffffffffffff168152602001908152602001600020548154811061247a57612479617ebc565b5b906000526020600020906005020160040160006101000a81548160ff0219169083151502179055503373ffffffffffffffffffffffffffffffffffffffff1681606001516000600281106124d1576124d0617ebc565b5b602002015173ffffffffffffffffffffffffffffffffffffffff167f024187b16c217a79f8d8e6252b542ec6e278fa91304acd9cfd866f2bbf00bd08836040015160405161251f91906171d5565b60405180910390a380915050919050565b61254261253b612fd9565b8383613b28565b5050565b600061255182610f2e565b90506001600281111561256757612566617e5e565b5b8160000151600281111561257e5761257d617e5e565b5b146125be576040517f08c379a00000000000000000000000000000000000000000000000000000000081526004016125b5906175a3565b60405180910390fd5b6002808111156125d1576125d0617e5e565b5b816000015160028111156125e8576125e7617e5e565b5b1415612629576040517f08c379a0000000000000000000000000000000000000000000000000000000008152600401612620906173c3565b60405180910390fd5b806060015160006002811061264157612640617ebc565b5b602002015173ffffffffffffffffffffffffffffffffffffffff163373ffffffffffffffffffffffffffffffffffffffff1614806126c65750806060015160016002811061269257612691617ebc565b5b602002015173ffffffffffffffffffffffffffffffffffffffff163373ffffffffffffffffffffffffffffffffffffffff16145b612705576040517f08c379a00000000000000000000000000000000000000000000000000000000081526004016126fc90617523565b60405180910390fd5b600081608001513373ffffffffffffffffffffffffffffffffffffffff16836060015160006002811061273b5761273a617ebc565b5b602002015173ffffffffffffffffffffffffffffffffffffffff1614612762576001612765565b60005b60ff166002811061277957612778617ebc565b5b602002015160ff16146127c1576040517f08c379a00000000000000000000000000000000000000000000000000000000081526004016127b8906172a3565b60405180910390fd5b6128273373ffffffffffffffffffffffffffffffffffffffff1682606001516000600281106127f3576127f2617ebc565b5b602002015173ffffffffffffffffffffffffffffffffffffffff161461281a57600161281d565b60005b60ff168484613c95565b61283082610f2e565b9050600080826080015160016002811061284d5761284c617ebc565b5b602002015160ff1614612861576001612864565b60005b6000836080015160006002811061287e5761287d617ebc565b5b602002015160ff1614612892576001612895565b60005b60026128a19190617b41565b6128ab9190617b41565b60ff169050600181146128bf5760006128c2565b60015b1515836040516128d29190616ea3565b60405180910390207f54b82b77e7ae55a8e6c9e89deba70c7191dea2a3b08ae647b380e9f981d6a0f860405160405180910390a360008114156129195761291883613dc7565b5b50505050565b600060046000838152602001908152602001600020549050919050565b600b818154811061294c57600080fd5b906000526020600020906004020160009150905080600001805461296f90617c9a565b80601f016020809104026020016040519081016040528092919081815260200182805461299b90617c9a565b80156129e85780601f106129bd576101008083540402835291602001916129e8565b820191906000526020600020905b8154815290600101906020018083116129cb57829003601f168201915b5050505050908060010154908060020154908060030154905084565b600080600860008473ffffffffffffffffffffffffffffffffffffffff1673ffffffffffffffffffffffffffffffffffffffff168152602001908152602001600020541415612a565760009050612a5b565b600190505b919050565b6000600654905090565b60606005612a7783613f4c565b604051602001612a88929190616eba565b6040516020818303038152906040529050919050565b600081565b600181565b6000600160008473ffffffffffffffffffffffffffffffffffffffff1673ffffffffffffffffffffffffffffffffffffffff16815260200190815260200160002060008373ffffffffffffffffffffffffffffffffffffffff1673ffffffffffffffffffffffffffffffffffffffff16815260200190815260200160002060009054906101000a900460ff16905092915050565b6060600a805480602002602001604051908101604052809291908181526020016000905b82821015612ca957838290600052602060002090600502016040518060a00160405290816000820160009054906101000a900473ffffffffffffffffffffffffffffffffffffffff1673ffffffffffffffffffffffffffffffffffffffff1673ffffffffffffffffffffffffffffffffffffffff168152602001600182018054612be990617c9a565b80601f0160208091040260200160405190810160405280929190818152602001828054612c1590617c9a565b8015612c625780601f10612c3757610100808354040283529160200191612c62565b820191906000526020600020905b815481529060010190602001808311612c4557829003601f168201915b5050505050815260200160028201548152602001600382015481526020016004820160009054906101000a900460ff16151515158152505081526020019060010190612b60565b50505050905090565b600481565b612cbf612fd9565b73ffffffffffffffffffffffffffffffffffffffff168573ffffffffffffffffffffffffffffffffffffffff161480612d055750612d0485612cff612fd9565b612aa8565b5b612d44576040517f08c379a0000000000000000000000000000000000000000000000000000000008152600401612d3b90617263565b60405180910390fd5b612d5185858585856140d5565b5050505050565b612d60612f41565b600073ffffffffffffffffffffffffffffffffffffffff168173ffffffffffffffffffffffffffffffffffffffff161415612dd0576040517f08c379a0000000000000000000000000000000000000000000000000000000008152600401612dc7906172e3565b60405180910390fd5b612dd981613303565b50565b600a8181548110612dec57600080fd5b90600052602060002090600502016000915090508060000160009054906101000a900473ffffffffffffffffffffffffffffffffffffffff1690806001018054612e3590617c9a565b80601f0160208091040260200160405190810160405280929190818152602001828054612e6190617c9a565b8015612eae5780601f10612e8357610100808354040283529160200191612eae565b820191906000526020600020905b815481529060010190602001808311612e9157829003601f168201915b5050505050908060020154908060030154908060040160009054906101000a900460ff16905085565b60007f01ffc9a7000000000000000000000000000000000000000000000000000000007bffffffffffffffffffffffffffffffffffffffffffffffffffffffff1916827bffffffffffffffffffffffffffffffffffffffffffffffffffffffff1916149050919050565b612f49612fd9565b73ffffffffffffffffffffffffffffffffffffffff16612f67611ed3565b73ffffffffffffffffffffffffffffffffffffffff1614612fbd576040517f08c379a0000000000000000000000000000000000000000000000000000000008152600401612fb4906174c3565b60405180910390fd5b565b8060029080519060200190612fd5929190615815565b5050565b600033905090565b8151835114613025576040517f08c379a000000000000000000000000000000000000000000000000000000000815260040161301c906175c3565b60405180910390fd5b600073ffffffffffffffffffffffffffffffffffffffff168473ffffffffffffffffffffffffffffffffffffffff161415613095576040517f08c379a000000000000000000000000000000000000000000000000000000000815260040161308c90617443565b60405180910390fd5b600061309f612fd9565b90506130af818787878787614371565b60005b84518110156132605760008582815181106130d0576130cf617ebc565b5b6020026020010151905060008583815181106130ef576130ee617ebc565b5b60200260200101519050600080600084815260200190815260200160002060008b73ffffffffffffffffffffffffffffffffffffffff1673ffffffffffffffffffffffffffffffffffffffff16815260200190815260200160002054905081811015613190576040517f08c379a0000000000000000000000000000000000000000000000000000000008152600401613187906174a3565b60405180910390fd5b81810360008085815260200190815260200160002060008c73ffffffffffffffffffffffffffffffffffffffff1673ffffffffffffffffffffffffffffffffffffffff168152602001908152602001600020819055508160008085815260200190815260200160002060008b73ffffffffffffffffffffffffffffffffffffffff1673ffffffffffffffffffffffffffffffffffffffff168152602001908152602001600020600082825461324591906179f5565b925050819055505050508061325990617cfd565b90506130b2565b508473ffffffffffffffffffffffffffffffffffffffff168673ffffffffffffffffffffffffffffffffffffffff168273ffffffffffffffffffffffffffffffffffffffff167f4a39dc06d4c0dbc64b70af90fd698a233a518aa5d07e595d983b8c0526c8f7fb87876040516132d7929190617137565b60405180910390a46132ed818787878787614387565b6132fb81878787878761438f565b505050505050565b6000600360009054906101000a900473ffffffffffffffffffffffffffffffffffffffff16905081600360006101000a81548173ffffffffffffffffffffffffffffffffffffffff021916908373ffffffffffffffffffffffffffffffffffffffff1602179055508173ffffffffffffffffffffffffffffffffffffffff168173ffffffffffffffffffffffffffffffffffffffff167f8be0079c531659141344cd1fd0a4f28419497f9722a3daafe3b4186f6b6457e060405160405180910390a35050565b6133d16157a8565b6002808111156133e4576133e3617e5e565b5b826000015160028111156133fb576133fa617e5e565b5b141561343c576040517f08c379a000000000000000000000000000000000000000000000000000000000815260040161343390617323565b60405180910390fd5b60028260000190600281111561345557613454617e5e565b5b9081600281111561346957613468617e5e565b5b81525050828260a0019073ffffffffffffffffffffffffffffffffffffffff16908173ffffffffffffffffffffffffffffffffffffffff16815250506134b38260400151836139ca565b60006007600084606001516000600281106134d1576134d0617ebc565b5b602002015173ffffffffffffffffffffffffffffffffffffffff1673ffffffffffffffffffffffffffffffffffffffff168152602001908152602001600020549050600060076000856060015160016002811061353157613530617ebc565b5b602002015173ffffffffffffffffffffffffffffffffffffffff1673ffffffffffffffffffffffffffffffffffffffff1681526020019081526020016000205490506000600a838154811061358957613588617ebc565b5b906000526020600020906005020160040160006101000a81548160ff0219169083151502179055506019600a83815481106135c7576135c6617ebc565b5b906000526020600020906005020160030181905550600a8083815481106135f1576135f0617ebc565b5b9060005260206000209060050201600201819055506000600a828154811061361c5761361b617ebc565b5b906000526020600020906005020160040160006101000a81548160ff0219169083151502179055506019600a828154811061365a57613659617ebc565b5b906000526020600020906005020160030181905550600a80828154811061368457613683617ebc565b5b906000526020600020906005020160020181905550600084606001516000600281106136b3576136b2617ebc565b5b602002015173ffffffffffffffffffffffffffffffffffffffff168673ffffffffffffffffffffffffffffffffffffffff161461370c57846060015160006002811061370257613701617ebc565b5b602002015161372a565b846060015160016002811061372457613723617ebc565b5b60200201515b90508073ffffffffffffffffffffffffffffffffffffffff168673ffffffffffffffffffffffffffffffffffffffff167fae6e5eafb6cd1cb4b139e7a0b9140aa182ee7d50e99f50d660156f79212acbc0876040015160405161378d91906171d5565b60405180910390a384935050505092915050565b6137a9615780565b60006137b6600a33614576565b9050600081600a6137c79190617b0d565b90506000606442336040516020016137e0929190616ef4565b6040516020818303038152906040528051906020012060001c6138039190617d9e565b90506006816138129190617dcf565b905060008160ff16141561382f57808061382b90617d46565b9150505b600060405180608001604052808781526020018360ff1681526020018581526020018481525090506000600b805490509050600b82908060018154018082558091505060019003906000526020600020906004020160009091909190915060008201518160000190805190602001906138a9929190615815565b50602082015181600101556040820151816002015560608201518160030155505080600860003373ffffffffffffffffffffffffffffffffffffffff1673ffffffffffffffffffffffffffffffffffffffff16815260200190815260200160002081905550613953338460ff1660016040518060400160405280600381526020017f30783000000000000000000000000000000000000000000000000000000000008152506145d7565b6006600081548092919061396690617cfd565b91905055503373ffffffffffffffffffffffffffffffffffffffff167fca8ab07e9ed17d119729fc652dd24df9d8430ca862dda4631925b5b4b99da3628487876040516139b59392919061772d565b60405180910390a28195505050505050919050565b6139d382610ef3565b613a12576040517f08c379a0000000000000000000000000000000000000000000000000000000008152600401613a09906173a3565b60405180910390fd5b80600c600984604051613a259190616ea3565b90815260200160405180910390205481548110613a4557613a44617ebc565b5b906000526020600020906007020160008201518160000160006101000a81548160ff02191690836002811115613a7e57613a7d617e5e565b5b0217905550602082015181600101556040820151816002019080519060200190613aa9929190615815565b50606082015181600301906002613ac192919061589b565b50608082015181600501906002613ad9929190615918565b5060a08201518160060160006101000a81548173ffffffffffffffffffffffffffffffffffffffff021916908373ffffffffffffffffffffffffffffffffffffffff1602179055509050505050565b8173ffffffffffffffffffffffffffffffffffffffff168373ffffffffffffffffffffffffffffffffffffffff161415613b97576040517f08c379a0000000000000000000000000000000000000000000000000000000008152600401613b8e90617563565b60405180910390fd5b80600160008573ffffffffffffffffffffffffffffffffffffffff1673ffffffffffffffffffffffffffffffffffffffff16815260200190815260200160002060008473ffffffffffffffffffffffffffffffffffffffff1673ffffffffffffffffffffffffffffffffffffffff16815260200190815260200160002060006101000a81548160ff0219169083151502179055508173ffffffffffffffffffffffffffffffffffffffff168373ffffffffffffffffffffffffffffffffffffffff167f17307eab39ab6107e8899845ad3d59bd9653f200f220920489ca2b5937696c3183604051613c88919061716e565b60405180910390a3505050565b60018260ff161480613caa575060028260ff16145b613ce9576040517f08c379a0000000000000000000000000000000000000000000000000000000008152600401613ce090617423565b60405180910390fd5b60018260ff1614613cfb576001613d0d565b6003613d06336116f1565b6040015110155b613d4c576040517f08c379a0000000000000000000000000000000000000000000000000000000008152600401613d4390617543565b60405180910390fd5b81600c600983604051613d5f9190616ea3565b90815260200160405180910390205481548110613d7f57613d7e617ebc565b5b90600052602060002090600702016005018460028110613da257613da1617ebc565b5b602091828204019190066101000a81548160ff021916908360ff160217905550505050565b6000613dd282610f2e565b90508060600151600060028110613dec57613deb617ebc565b5b602002015173ffffffffffffffffffffffffffffffffffffffff163373ffffffffffffffffffffffffffffffffffffffff161480613e7157508060600151600160028110613e3d57613e3c617ebc565b5b602002015173ffffffffffffffffffffffffffffffffffffffff163373ffffffffffffffffffffffffffffffffffffffff16145b613eb0576040517f08c379a0000000000000000000000000000000000000000000000000000000008152600401613ea7906175e3565b60405180910390fd5b60008160800151600060028110613eca57613ec9617ebc565b5b602002015160ff1614158015613f00575060008160800151600160028110613ef557613ef4617ebc565b5b602002015160ff1614155b613f3f576040517f08c379a0000000000000000000000000000000000000000000000000000000008152600401613f3690617303565b60405180910390fd5b613f4881614788565b5050565b60606000821415613f94576040518060400160405280600181526020017f300000000000000000000000000000000000000000000000000000000000000081525090506140d0565b600082905060005b60008214613fc6578080613faf90617cfd565b915050600a82613fbf9190617a82565b9150613f9c565b60008167ffffffffffffffff811115613fe257613fe1617eeb565b5b6040519080825280601f01601f1916602001820160405280156140145781602001600182028036833780820191505090505b50905060008290505b600086146140c8576001816140329190617b0d565b90506000600a80886140449190617a82565b61404e9190617ab3565b876140599190617b0d565b60306140659190617a4b565b905060008160f81b90508084848151811061408357614082617ebc565b5b60200101907effffffffffffffffffffffffffffffffffffffffffffffffffffffffffffff1916908160001a905350600a886140bf9190617a82565b9750505061401d565b819450505050505b919050565b600073ffffffffffffffffffffffffffffffffffffffff168473ffffffffffffffffffffffffffffffffffffffff161415614145576040517f08c379a000000000000000000000000000000000000000000000000000000000815260040161413c90617443565b60405180910390fd5b600061414f612fd9565b9050600061415c85615322565b9050600061416985615322565b9050614179838989858589614371565b600080600088815260200190815260200160002060008a73ffffffffffffffffffffffffffffffffffffffff1673ffffffffffffffffffffffffffffffffffffffff16815260200190815260200160002054905085811015614210576040517f08c379a0000000000000000000000000000000000000000000000000000000008152600401614207906174a3565b60405180910390fd5b85810360008089815260200190815260200160002060008b73ffffffffffffffffffffffffffffffffffffffff1673ffffffffffffffffffffffffffffffffffffffff168152602001908152602001600020819055508560008089815260200190815260200160002060008a73ffffffffffffffffffffffffffffffffffffffff1673ffffffffffffffffffffffffffffffffffffffff16815260200190815260200160002060008282546142c591906179f5565b925050819055508773ffffffffffffffffffffffffffffffffffffffff168973ffffffffffffffffffffffffffffffffffffffff168573ffffffffffffffffffffffffffffffffffffffff167fc3d58168c5ae7397731d063d5bbf3d657854427343f4c083240f7aacaa2d0f628a8a604051614342929190617704565b60405180910390a4614358848a8a86868a614387565b614366848a8a8a8a8a61539c565b505050505050505050565b61437f868686868686615583565b505050505050565b505050505050565b6143ae8473ffffffffffffffffffffffffffffffffffffffff16615755565b1561456e578373ffffffffffffffffffffffffffffffffffffffff1663bc197c8187878686866040518663ffffffff1660e01b81526004016143f4959493929190616f78565b602060405180830381600087803b15801561440e57600080fd5b505af192505050801561443f57506040513d601f19601f8201168201806040525081019061443c9190615ff7565b60015b6144e55761444b617f1a565b806308c379a014156144a857506144606187f0565b8061446b57506144aa565b806040517f08c379a000000000000000000000000000000000000000000000000000000000815260040161449f91906171d5565b60405180910390fd5b505b6040517f08c379a00000000000000000000000000000000000000000000000000000000081526004016144dc90617243565b60405180910390fd5b63bc197c8160e01b7bffffffffffffffffffffffffffffffffffffffffffffffffffffffff1916817bffffffffffffffffffffffffffffffffffffffffffffffffffffffff19161461456c576040517f08c379a000000000000000000000000000000000000000000000000000000000815260040161456390617283565b60405180910390fd5b505b505050505050565b60008044428460405160200161458e93929190616f20565b6040516020818303038152906040528051906020012060001c905083816145b59190617d9e565b915060008214156145d0576002846145cd9190617a82565b91505b5092915050565b600073ffffffffffffffffffffffffffffffffffffffff168473ffffffffffffffffffffffffffffffffffffffff161415614647576040517f08c379a000000000000000000000000000000000000000000000000000000000815260040161463e90617603565b60405180910390fd5b6000614651612fd9565b9050600061465e85615322565b9050600061466b85615322565b905061467c83600089858589614371565b8460008088815260200190815260200160002060008973ffffffffffffffffffffffffffffffffffffffff1673ffffffffffffffffffffffffffffffffffffffff16815260200190815260200160002060008282546146db91906179f5565b925050819055508673ffffffffffffffffffffffffffffffffffffffff16600073ffffffffffffffffffffffffffffffffffffffff168473ffffffffffffffffffffffffffffffffffffffff167fc3d58168c5ae7397731d063d5bbf3d657854427343f4c083240f7aacaa2d0f628989604051614759929190617704565b60405180910390a461477083600089858589614387565b61477f8360008989898961539c565b50505050505050565b60006040518060a001604052806007600085606001516000600281106147b1576147b0617ebc565b5b602002015173ffffffffffffffffffffffffffffffffffffffff1673ffffffffffffffffffffffffffffffffffffffff168152602001908152602001600020548152602001836080015160006002811061480e5761480d617ebc565b5b602002015160ff168152602001614840846060015160006002811061483657614835617ebc565b5b60200201516116f1565b60600151815260200161486e846060015160006002811061486457614863617ebc565b5b6020020151610d80565b60400151815260200161489c846060015160006002811061489257614891617ebc565b5b6020020151610d80565b60600151815250905060006040518060a001604052806007600086606001516001600281106148ce576148cd617ebc565b5b602002015173ffffffffffffffffffffffffffffffffffffffff1673ffffffffffffffffffffffffffffffffffffffff168152602001908152602001600020548152602001846080015160016002811061492b5761492a617ebc565b5b602002015160ff16815260200161495d856060015160016002811061495357614952617ebc565b5b60200201516116f1565b60600151815260200161498b856060015160016002811061498157614980617ebc565b5b6020020151610d80565b6040015181526020016149b985606001516001600281106149af576149ae617ebc565b5b6020020151610d80565b60600151815250905060006040518060400160405280600073ffffffffffffffffffffffffffffffffffffffff1673ffffffffffffffffffffffffffffffffffffffff168152602001600073ffffffffffffffffffffffffffffffffffffffff1673ffffffffffffffffffffffffffffffffffffffff16815250905060018360200151148015614a4d575060018260200151145b15614be0578160400151836060015110614a8d57614a878460600151600060028110614a7c57614a7b617ebc565b5b6020020151856133c9565b50614bdb565b8260400151826060015110614ac857614ac28460600151600160028110614ab757614ab6617ebc565b5b6020020151856133c9565b50614bda565b8160600151600a846000015181548110614ae557614ae4617ebc565b5b90600052602060002090600502016003016000828254614b059190617b0d565b925050819055508260600151600a836000015181548110614b2957614b28617ebc565b5b90600052602060002090600502016003016000828254614b499190617b0d565b925050819055506003600a846000015181548110614b6a57614b69617ebc565b5b90600052602060002090600502016002016000828254614b8a9190617b0d565b925050819055506003600a836000015181548110614bab57614baa617ebc565b5b90600052602060002090600502016002016000828254614bcb9190617b0d565b92505081905550836060015190505b5b614ffd565b60018360200151148015614bf8575060028260200151145b15614d9d57600082608001518360400151614c1391906179f5565b905080846060015110614c4c57614c468560600151600060028110614c3b57614c3a617ebc565b5b6020020151866133c9565b50614d97565b6000846060015184608001511115614c6a5783604001519050614ce5565b846060015182614c7a9190617b0d565b90508560600151600160028110614c9457614c93617ebc565b5b602002015183600060028110614cad57614cac617ebc565b5b602002019073ffffffffffffffffffffffffffffffffffffffff16908173ffffffffffffffffffffffffffffffffffffffff16815250505b80600a856000015181548110614cfe57614cfd617ebc565b5b9060005260206000209060050201600301819055506003600a866000015181548110614d2d57614d2c617ebc565b5b90600052602060002090600502016002016000828254614d4d9190617b0d565b925050819055506003600a856000015181548110614d6e57614d6d617ebc565b5b90600052602060002090600502016002016000828254614d8e91906179f5565b92505081905550505b50614ffc565b60028360200151148015614db5575060018260200151145b15614f5a57600083608001518460400151614dd091906179f5565b905080836060015110614e0957614e038560600151600160028110614df857614df7617ebc565b5b6020020151866133c9565b50614f54565b6000836060015185608001511115614e275784604001519050614ea2565b836060015182614e379190617b0d565b90508560600151600060028110614e5157614e50617ebc565b5b602002015183600060028110614e6a57614e69617ebc565b5b602002019073ffffffffffffffffffffffffffffffffffffffff16908173ffffffffffffffffffffffffffffffffffffffff16815250505b80600a866000015181548110614ebb57614eba617ebc565b5b9060005260206000209060050201600301819055506003600a866000015181548110614eea57614ee9617ebc565b5b90600052602060002090600502016002016000828254614f0a91906179f5565b925050819055506003600a856000015181548110614f2b57614f2a617ebc565b5b90600052602060002090600502016002016000828254614f4b9190617b0d565b92505081905550505b50614ffb565b60028360200151148015614f72575060028260200151145b15614ffa576003600a846000015181548110614f9157614f90617ebc565b5b90600052602060002090600502016002016000828254614fb191906179f5565b925050819055506003600a836000015181548110614fd257614fd1617ebc565b5b90600052602060002090600502016002016000828254614ff291906179f5565b925050819055505b5b5b5b7fc6bf860cbc15f7020f73993a671f01bbb1831a8a7a12c126ca735eb632e757758160405161502c9190617094565b60405180910390a16000846080015160006002811061504e5761504d617ebc565b5b602002019060ff16908160ff16815250506000846080015160016002811061507957615078617ebc565b5b602002019060ff16908160ff16815250506150988460400151856139ca565b60006150c1600a86606001516000600281106150b7576150b6617ebc565b5b6020020151614576565b905080600b6008600088606001516000600281106150e2576150e1617ebc565b5b602002015173ffffffffffffffffffffffffffffffffffffffff1673ffffffffffffffffffffffffffffffffffffffff168152602001908152602001600020548154811061513357615132617ebc565b5b90600052602060002090600402016002018190555080600a6151559190617b0d565b600b60086000886060015160006002811061517357615172617ebc565b5b602002015173ffffffffffffffffffffffffffffffffffffffff1673ffffffffffffffffffffffffffffffffffffffff16815260200190815260200160002054815481106151c4576151c3617ebc565b5b9060005260206000209060040201600301819055506000615202600a87606001516001600281106151f8576151f7617ebc565b5b6020020151614576565b905080600b60086000896060015160016002811061522357615222617ebc565b5b602002015173ffffffffffffffffffffffffffffffffffffffff1673ffffffffffffffffffffffffffffffffffffffff168152602001908152602001600020548154811061527457615273617ebc565b5b90600052602060002090600402016002018190555080600a6152969190617b0d565b600b6008600089606001516001600281106152b4576152b3617ebc565b5b602002015173ffffffffffffffffffffffffffffffffffffffff1673ffffffffffffffffffffffffffffffffffffffff168152602001908152602001600020548154811061530557615304617ebc565b5b906000526020600020906004020160030181905550505050505050565b60606000600167ffffffffffffffff81111561534157615340617eeb565b5b60405190808252806020026020018201604052801561536f5781602001602082028036833780820191505090505b509050828160008151811061538757615386617ebc565b5b60200260200101818152505080915050919050565b6153bb8473ffffffffffffffffffffffffffffffffffffffff16615755565b1561557b578373ffffffffffffffffffffffffffffffffffffffff1663f23a6e6187878686866040518663ffffffff1660e01b8152600401615401959493929190616fe0565b602060405180830381600087803b15801561541b57600080fd5b505af192505050801561544c57506040513d601f19601f820116820180604052508101906154499190615ff7565b60015b6154f257615458617f1a565b806308c379a014156154b5575061546d6187f0565b8061547857506154b7565b806040517f08c379a00000000000000000000000000000000000000000000000000000000081526004016154ac91906171d5565b60405180910390fd5b505b6040517f08c379a00000000000000000000000000000000000000000000000000000000081526004016154e990617243565b60405180910390fd5b63f23a6e6160e01b7bffffffffffffffffffffffffffffffffffffffffffffffffffffffff1916817bffffffffffffffffffffffffffffffffffffffffffffffffffffffff191614615579576040517f08c379a000000000000000000000000000000000000000000000000000000000815260040161557090617283565b60405180910390fd5b505b505050505050565b615591868686868686615778565b600073ffffffffffffffffffffffffffffffffffffffff168573ffffffffffffffffffffffffffffffffffffffff1614156156435760005b8351811015615641578281815181106155e5576155e4617ebc565b5b60200260200101516004600086848151811061560457615603617ebc565b5b60200260200101518152602001908152602001600020600082825461562991906179f5565b925050819055508061563a90617cfd565b90506155c9565b505b600073ffffffffffffffffffffffffffffffffffffffff168473ffffffffffffffffffffffffffffffffffffffff16141561574d5760005b835181101561574b57600084828151811061569957615698617ebc565b5b6020026020010151905060008483815181106156b8576156b7617ebc565b5b602002602001015190506000600460008481526020019081526020016000205490508181101561571d576040517f08c379a000000000000000000000000000000000000000000000000000000000815260040161571490617503565b60405180910390fd5b81810360046000858152602001908152602001600020819055505050508061574490617cfd565b905061567b565b505b505050505050565b6000808273ffffffffffffffffffffffffffffffffffffffff163b119050919050565b505050505050565b6040518060800160405280606081526020016000815260200160008152602001600081525090565b6040518060c00160405280600060028111156157c7576157c6617e5e565b5b815260200160008019168152602001606081526020016157e56159f9565b81526020016157f2615a1b565b8152602001600073ffffffffffffffffffffffffffffffffffffffff1681525090565b82805461582190617c9a565b90600052602060002090601f016020900481019282615843576000855561588a565b82601f1061585c57805160ff191683800117855561588a565b8280016001018555821561588a579182015b8281111561588957825182559160200191906001019061586e565b5b5090506158979190615a3d565b5090565b8260028101928215615907579160200282015b828111156159065782518260006101000a81548173ffffffffffffffffffffffffffffffffffffffff021916908373ffffffffffffffffffffffffffffffffffffffff160217905550916020019190600101906158ae565b5b5090506159149190615a3d565b5090565b826002601f016020900481019282156159a15791602002820160005b8382111561597257835183826101000a81548160ff021916908360ff1602179055509260200192600101602081600001049283019260010302615934565b801561599f5782816101000a81549060ff0219169055600101602081600001049283019260010302615972565b505b5090506159ae9190615a3d565b5090565b6040518060a00160405280600073ffffffffffffffffffffffffffffffffffffffff1681526020016060815260200160008152602001600081526020016000151581525090565b6040518060400160405280600290602082028036833780820191505090505090565b6040518060400160405280600290602082028036833780820191505090505090565b5b80821115615a56576000816000905550600101615a3e565b5090565b6000615a6d615a6884617789565b617764565b90508083825260208201905082856020860282011115615a9057615a8f617f41565b5b60005b85811015615ac05781615aa68882615bbe565b845260208401935060208301925050600181019050615a93565b5050509392505050565b6000615add615ad8846177b5565b617764565b90508083825260208201905082856020860282011115615b0057615aff617f41565b5b60005b85811015615b305781615b168882615cd5565b845260208401935060208301925050600181019050615b03565b5050509392505050565b6000615b4d615b48846177e1565b617764565b905082815260208101848484011115615b6957615b68617f46565b5b615b74848285617c58565b509392505050565b6000615b8f615b8a84617812565b617764565b905082815260208101848484011115615bab57615baa617f46565b5b615bb6848285617c58565b509392505050565b600081359050615bcd8161889a565b615bd681617b75565b905092915050565b600082601f830112615bf357615bf2617f3c565b5b8135615c03848260208601615a5a565b91505092915050565b600082601f830112615c2157615c20617f3c565b5b8135615c31848260208601615aca565b91505092915050565b600081359050615c49816188b1565b92915050565b600081359050615c5e816188c8565b92915050565b600081519050615c73816188c8565b92915050565b600082601f830112615c8e57615c8d617f3c565b5b8135615c9e848260208601615b3a565b91505092915050565b600082601f830112615cbc57615cbb617f3c565b5b8135615ccc848260208601615b7c565b91505092915050565b600081359050615ce4816188df565b92915050565b600081359050615cf9816188f6565b92915050565b600060208284031215615d1557615d14617f50565b5b6000615d2384828501615bbe565b91505092915050565b60008060408385031215615d4357615d42617f50565b5b6000615d5185828601615bbe565b9250506020615d6285828601615bbe565b9150509250929050565b600080600080600060a08688031215615d8857615d87617f50565b5b6000615d9688828901615bbe565b9550506020615da788828901615bbe565b945050604086013567ffffffffffffffff811115615dc857615dc7617f4b565b5b615dd488828901615c0c565b935050606086013567ffffffffffffffff811115615df557615df4617f4b565b5b615e0188828901615c0c565b925050608086013567ffffffffffffffff811115615e2257615e21617f4b565b5b615e2e88828901615c79565b9150509295509295909350565b600080600080600060a08688031215615e5757615e56617f50565b5b6000615e6588828901615bbe565b9550506020615e7688828901615bbe565b9450506040615e8788828901615cd5565b9350506060615e9888828901615cd5565b925050608086013567ffffffffffffffff811115615eb957615eb8617f4b565b5b615ec588828901615c79565b9150509295509295909350565b60008060408385031215615ee957615ee8617f50565b5b6000615ef785828601615bbe565b9250506020615f0885828601615c3a565b9150509250929050565b60008060408385031215615f2957615f28617f50565b5b6000615f3785828601615bbe565b9250506020615f4885828601615cd5565b9150509250929050565b60008060408385031215615f6957615f68617f50565b5b600083013567ffffffffffffffff811115615f8757615f86617f4b565b5b615f9385828601615bde565b925050602083013567ffffffffffffffff811115615fb457615fb3617f4b565b5b615fc085828601615c0c565b9150509250929050565b600060208284031215615fe057615fdf617f50565b5b6000615fee84828501615c4f565b91505092915050565b60006020828403121561600d5761600c617f50565b5b600061601b84828501615c64565b91505092915050565b60006020828403121561603a57616039617f50565b5b600082013567ffffffffffffffff81111561605857616057617f4b565b5b61606484828501615ca7565b91505092915050565b6000806040838503121561608457616083617f50565b5b600083013567ffffffffffffffff8111156160a2576160a1617f4b565b5b6160ae85828601615ca7565b925050602083013567ffffffffffffffff8111156160cf576160ce617f4b565b5b6160db85828601615ca7565b9150509250929050565b6000602082840312156160fb576160fa617f50565b5b600061610984828501615cd5565b91505092915050565b6000806040838503121561612957616128617f50565b5b600061613785828601615cea565b925050602083013567ffffffffffffffff81111561615857616157617f4b565b5b61616485828601615ca7565b9150509250929050565b600061617a83836161f2565b60208301905092915050565b60006161928383616b8a565b905092915050565b60006161a68383616c9e565b905092915050565b60006161ba8383616d64565b905092915050565b60006161ce8383616e50565b60208301905092915050565b60006161e68383616e94565b60208301905092915050565b6161fb81617b75565b82525050565b61620a81617b75565b82525050565b61622161621c82617b75565b617d70565b82525050565b616230816178ac565b61623a8184617952565b925061624582617843565b8060005b8381101561627657815161625d878261616e565b965061626883617904565b925050600181019050616249565b505050505050565b616287816178ac565b616291818461795d565b925061629c82617843565b8060005b838110156162cd5781516162b4878261616e565b96506162bf83617904565b9250506001810190506162a0565b505050505050565b60006162e0826178b7565b6162ea8185617968565b9350836020820285016162fc8561784d565b8060005b8581101561633857848403895281516163198582616186565b945061632483617911565b925060208a01995050600181019050616300565b50829750879550505050505092915050565b6000616355826178c2565b61635f8185617979565b9350836020820285016163718561785d565b8060005b858110156163ad578484038952815161638e858261619a565b94506163998361791e565b925060208a01995050600181019050616375565b50829750879550505050505092915050565b60006163ca826178cd565b6163d4818561798a565b9350836020820285016163e68561786d565b8060005b85811015616422578484038952815161640385826161ae565b945061640e8361792b565b925060208a019950506001810190506163ea565b50829750879550505050505092915050565b600061643f826178d8565b616449818561799b565b93506164548361787d565b8060005b8381101561648557815161646c88826161c2565b975061647783617938565b925050600181019050616458565b5085935050505092915050565b61649b816178e3565b6164a581846179ac565b92506164b08261788d565b8060005b838110156164e15781516164c887826161da565b96506164d383617945565b9250506001810190506164b4565b505050505050565b6164f281617b87565b82525050565b61650181617b87565b82525050565b61651081617b93565b82525050565b61651f81617b93565b82525050565b6000616530826178ee565b61653a81856179b7565b935061654a818560208601617c67565b61655381617f55565b840191505092915050565b61656781617c34565b82525050565b61657681617c34565b82525050565b6000616587826178f9565b61659181856179c8565b93506165a1818560208601617c67565b6165aa81617f55565b840191505092915050565b60006165c0826178f9565b6165ca81856179d9565b93506165da818560208601617c67565b6165e381617f55565b840191505092915050565b60006165f9826178f9565b61660381856179ea565b9350616613818560208601617c67565b80840191505092915050565b6000815461662c81617c9a565b61663681866179ea565b94506001821660008114616651576001811461666257616695565b60ff19831686528186019350616695565b61666b85617897565b60005b8381101561668d5781548189015260018201915060208101905061666e565b838801955050505b50505092915050565b60006166ab6034836179d9565b91506166b682617f80565b604082019050919050565b60006166ce602f836179d9565b91506166d982617fcf565b604082019050919050565b60006166f16028836179d9565b91506166fc8261801e565b604082019050919050565b6000616714601d836179d9565b915061671f8261806d565b602082019050919050565b60006167376019836179d9565b915061674282618096565b602082019050919050565b600061675a6026836179d9565b9150616765826180bf565b604082019050919050565b600061677d6021836179d9565b91506167888261810e565b604082019050919050565b60006167a06014836179d9565b91506167ab8261815d565b602082019050919050565b60006167c3602a836179d9565b91506167ce82618186565b604082019050919050565b60006167e66011836179d9565b91506167f1826181d5565b602082019050919050565b6000616809601c836179d9565b9150616814826181fe565b602082019050919050565b600061682c6014836179d9565b915061683782618227565b602082019050919050565b600061684f6018836179d9565b915061685a82618250565b602082019050919050565b60006168726017836179d9565b915061687d82618279565b602082019050919050565b60006168956016836179d9565b91506168a0826182a2565b602082019050919050565b60006168b8601f836179d9565b91506168c3826182cb565b602082019050919050565b60006168db6025836179d9565b91506168e6826182f4565b604082019050919050565b60006168fe6019836179d9565b915061690982618343565b602082019050919050565b60006169216021836179d9565b915061692c8261836c565b604082019050919050565b6000616944602a836179d9565b915061694f826183bb565b604082019050919050565b60006169676005836179ea565b91506169728261840a565b600582019050919050565b600061698a6020836179d9565b915061699582618433565b602082019050919050565b60006169ad6015836179d9565b91506169b88261845c565b602082019050919050565b60006169d06028836179d9565b91506169db82618485565b604082019050919050565b60006169f3601a836179d9565b91506169fe826184d4565b602082019050919050565b6000616a166022836179d9565b9150616a21826184fd565b604082019050919050565b6000616a396029836179d9565b9150616a448261854c565b604082019050919050565b6000616a5c6029836179d9565b9150616a678261859b565b604082019050919050565b6000616a7f6041836179d9565b9150616a8a826185ea565b606082019050919050565b6000616aa26028836179d9565b9150616aad8261865f565b604082019050919050565b6000616ac5602b836179d9565b9150616ad0826186ae565b604082019050919050565b6000616ae86021836179d9565b9150616af3826186fd565b604082019050919050565b6000616b0b6015836179d9565b9150616b168261874c565b602082019050919050565b6000616b2e601b836179d9565b9150616b3982618775565b602082019050919050565b6000616b516001836179ea565b9150616b5c8261879e565b600182019050919050565b6000616b746015836179d9565b9150616b7f826187c7565b602082019050919050565b600061010083016000830151616ba3600086018261655e565b506020830151616bb66020860182616507565b5060408301518482036040860152616bce828261657c565b9150506060830151616be36060860182616227565b506080830151616bf660a0860182616492565b5060a0830151616c0960e08601826161f2565b508091505092915050565b600061010083016000830151616c2d600086018261655e565b506020830151616c406020860182616507565b5060408301518482036040860152616c58828261657c565b9150506060830151616c6d6060860182616227565b506080830151616c8060a0860182616492565b5060a0830151616c9360e08601826161f2565b508091505092915050565b60006080830160008301518482036000860152616cbb828261657c565b9150506020830151616cd06020860182616e50565b506040830151616ce36040860182616e50565b506060830151616cf66060860182616e50565b508091505092915050565b60006080830160008301518482036000860152616d1e828261657c565b9150506020830151616d336020860182616e50565b506040830151616d466040860182616e50565b506060830151616d596060860182616e50565b508091505092915050565b600060a083016000830151616d7c60008601826161f2565b5060208301518482036020860152616d94828261657c565b9150506040830151616da96040860182616e50565b506060830151616dbc6060860182616e50565b506080830151616dcf60808601826164e9565b508091505092915050565b600060a083016000830151616df260008601826161f2565b5060208301518482036020860152616e0a828261657c565b9150506040830151616e1f6040860182616e50565b506060830151616e326060860182616e50565b506080830151616e4560808601826164e9565b508091505092915050565b616e5981617c1d565b82525050565b616e6881617c1d565b82525050565b616e7f616e7a82617c1d565b617d94565b82525050565b616e8e81617c46565b82525050565b616e9d81617c27565b82525050565b6000616eaf82846165ee565b915081905092915050565b6000616ec6828561661f565b9150616ed182616b44565b9150616edd82846165ee565b9150616ee88261695a565b91508190509392505050565b6000616f008285616e6e565b602082019150616f108284616210565b6014820191508190509392505050565b6000616f2c8286616e6e565b602082019150616f3c8285616e6e565b602082019150616f4c8284616210565b601482019150819050949350505050565b6000602082019050616f726000830184616201565b92915050565b600060a082019050616f8d6000830188616201565b616f9a6020830187616201565b8181036040830152616fac8186616434565b90508181036060830152616fc08185616434565b90508181036080830152616fd48184616525565b90509695505050505050565b600060a082019050616ff56000830188616201565b6170026020830187616201565b61700f6040830186616e5f565b61701c6060830185616e5f565b818103608083015261702e8184616525565b90509695505050505050565b600060a08201905061704f6000830188616201565b818103602083015261706181876165b5565b90506170706040830186616e5f565b61707d6060830185616e5f565b61708a60808301846164f8565b9695505050505050565b60006040820190506170a9600083018461627e565b92915050565b600060208201905081810360008301526170c981846162d5565b905092915050565b600060208201905081810360008301526170eb818461634a565b905092915050565b6000602082019050818103600083015261710d81846163bf565b905092915050565b6000602082019050818103600083015261712f8184616434565b905092915050565b600060408201905081810360008301526171518185616434565b905081810360208301526171658184616434565b90509392505050565b600060208201905061718360008301846164f8565b92915050565b600060808201905061719e600083018761656d565b6171ab6020830186616516565b81810360408301526171bd81856165b5565b90506171cc6060830184616201565b95945050505050565b600060208201905081810360008301526171ef81846165b5565b905092915050565b6000608082019050818103600083015261721181876165b5565b90506172206020830186616e5f565b61722d6040830185616e5f565b61723a6060830184616e5f565b95945050505050565b6000602082019050818103600083015261725c8161669e565b9050919050565b6000602082019050818103600083015261727c816166c1565b9050919050565b6000602082019050818103600083015261729c816166e4565b9050919050565b600060208201905081810360008301526172bc81616707565b9050919050565b600060208201905081810360008301526172dc8161672a565b9050919050565b600060208201905081810360008301526172fc8161674d565b9050919050565b6000602082019050818103600083015261731c81616770565b9050919050565b6000602082019050818103600083015261733c81616793565b9050919050565b6000602082019050818103600083015261735c816167b6565b9050919050565b6000602082019050818103600083015261737c816167d9565b9050919050565b6000602082019050818103600083015261739c816167fc565b9050919050565b600060208201905081810360008301526173bc8161681f565b9050919050565b600060208201905081810360008301526173dc81616842565b9050919050565b600060208201905081810360008301526173fc81616865565b9050919050565b6000602082019050818103600083015261741c81616888565b9050919050565b6000602082019050818103600083015261743c816168ab565b9050919050565b6000602082019050818103600083015261745c816168ce565b9050919050565b6000602082019050818103600083015261747c816168f1565b9050919050565b6000602082019050818103600083015261749c81616914565b9050919050565b600060208201905081810360008301526174bc81616937565b9050919050565b600060208201905081810360008301526174dc8161697d565b9050919050565b600060208201905081810360008301526174fc816169a0565b9050919050565b6000602082019050818103600083015261751c816169c3565b9050919050565b6000602082019050818103600083015261753c816169e6565b9050919050565b6000602082019050818103600083015261755c81616a09565b9050919050565b6000602082019050818103600083015261757c81616a2c565b9050919050565b6000602082019050818103600083015261759c81616a4f565b9050919050565b600060208201905081810360008301526175bc81616a72565b9050919050565b600060208201905081810360008301526175dc81616a95565b9050919050565b600060208201905081810360008301526175fc81616ab8565b9050919050565b6000602082019050818103600083015261761c81616adb565b9050919050565b6000602082019050818103600083015261763c81616afe565b9050919050565b6000602082019050818103600083015261765c81616b21565b9050919050565b6000602082019050818103600083015261767c81616b67565b9050919050565b6000602082019050818103600083015261769d8184616c14565b905092915050565b600060208201905081810360008301526176bf8184616d01565b905092915050565b600060208201905081810360008301526176e18184616dda565b905092915050565b60006020820190506176fe6000830184616e5f565b92915050565b60006040820190506177196000830185616e5f565b6177266020830184616e5f565b9392505050565b60006060820190506177426000830186616e85565b61774f6020830185616e5f565b61775c6040830184616e5f565b949350505050565b600061776e61777f565b905061777a8282617ccc565b919050565b6000604051905090565b600067ffffffffffffffff8211156177a4576177a3617eeb565b5b602082029050602081019050919050565b600067ffffffffffffffff8211156177d0576177cf617eeb565b5b602082029050602081019050919050565b600067ffffffffffffffff8211156177fc576177fb617eeb565b5b61780582617f55565b9050602081019050919050565b600067ffffffffffffffff82111561782d5761782c617eeb565b5b61783682617f55565b9050602081019050919050565b6000819050919050565b6000819050602082019050919050565b6000819050602082019050919050565b6000819050602082019050919050565b6000819050602082019050919050565b6000819050919050565b60008190508160005260206000209050919050565b600060029050919050565b600081519050919050565b600081519050919050565b600081519050919050565b600081519050919050565b600060029050919050565b600081519050919050565b600081519050919050565b6000602082019050919050565b6000602082019050919050565b6000602082019050919050565b6000602082019050919050565b6000602082019050919050565b6000602082019050919050565b600081905092915050565b600081905092915050565b600082825260208201905092915050565b600082825260208201905092915050565b600082825260208201905092915050565b600082825260208201905092915050565b600081905092915050565b600082825260208201905092915050565b600082825260208201905092915050565b600082825260208201905092915050565b600081905092915050565b6000617a0082617c1d565b9150617a0b83617c1d565b9250827fffffffffffffffffffffffffffffffffffffffffffffffffffffffffffffffff03821115617a4057617a3f617e00565b5b828201905092915050565b6000617a5682617c27565b9150617a6183617c27565b92508260ff03821115617a7757617a76617e00565b5b828201905092915050565b6000617a8d82617c1d565b9150617a9883617c1d565b925082617aa857617aa7617e2f565b5b828204905092915050565b6000617abe82617c1d565b9150617ac983617c1d565b9250817fffffffffffffffffffffffffffffffffffffffffffffffffffffffffffffffff0483118215151615617b0257617b01617e00565b5b828202905092915050565b6000617b1882617c1d565b9150617b2383617c1d565b925082821015617b3657617b35617e00565b5b828203905092915050565b6000617b4c82617c27565b9150617b5783617c27565b925082821015617b6a57617b69617e00565b5b828203905092915050565b6000617b8082617bdc565b9050919050565b60008115159050919050565b6000819050919050565b60007fffffffff0000000000000000000000000000000000000000000000000000000082169050919050565b6000819050617bd782618886565b919050565b600073ffffffffffffffffffffffffffffffffffffffff82169050919050565b600074ffffffffffffffffffffffffffffffffffffffffff82169050919050565b6000819050919050565b600060ff82169050919050565b6000617c3f82617bc9565b9050919050565b6000617c5182617c27565b9050919050565b82818337600083830152505050565b60005b83811015617c85578082015181840152602081019050617c6a565b83811115617c94576000848401525b50505050565b60006002820490506001821680617cb257607f821691505b60208210811415617cc657617cc5617e8d565b5b50919050565b617cd582617f55565b810181811067ffffffffffffffff82111715617cf457617cf3617eeb565b5b80604052505050565b6000617d0882617c1d565b91507fffffffffffffffffffffffffffffffffffffffffffffffffffffffffffffffff821415617d3b57617d3a617e00565b5b600182019050919050565b6000617d5182617c27565b915060ff821415617d6557617d64617e00565b5b600182019050919050565b6000617d7b82617d82565b9050919050565b6000617d8d82617f66565b9050919050565b6000819050919050565b6000617da982617c1d565b9150617db483617c1d565b925082617dc457617dc3617e2f565b5b828206905092915050565b6000617dda82617c27565b9150617de583617c27565b925082617df557617df4617e2f565b5b828206905092915050565b7f4e487b7100000000000000000000000000000000000000000000000000000000600052601160045260246000fd5b7f4e487b7100000000000000000000000000000000000000000000000000000000600052601260045260246000fd5b7f4e487b7100000000000000000000000000000000000000000000000000000000600052602160045260246000fd5b7f4e487b7100000000000000000000000000000000000000000000000000000000600052602260045260246000fd5b7f4e487b7100000000000000000000000000000000000000000000000000000000600052603260045260246000fd5b7f4e487b7100000000000000000000000000000000000000000000000000000000600052604160045260246000fd5b600060033d1115617f395760046000803e617f36600051617f73565b90505b90565b600080fd5b600080fd5b600080fd5b600080fd5b600080fd5b6000601f19601f8301169050919050565b60008160601b9050919050565b60008160e01c9050919050565b7f455243313135353a207472616e7366657220746f206e6f6e204552433131353560008201527f526563656976657220696d706c656d656e746572000000000000000000000000602082015250565b7f455243313135353a2063616c6c6572206973206e6f7420746f6b656e206f776e60008201527f6572206e6f7220617070726f7665640000000000000000000000000000000000602082015250565b7f455243313135353a204552433131353552656365697665722072656a6563746560008201527f6420746f6b656e73000000000000000000000000000000000000000000000000602082015250565b7f596f75206861766520616c7265616479206d6164652061206d6f766521000000600082015250565b7f47616d6520746f6b656e20646f65736e27742065786973742100000000000000600082015250565b7f4f776e61626c653a206e6577206f776e657220697320746865207a65726f206160008201527f6464726573730000000000000000000000000000000000000000000000000000602082015250565b7f506c6179657273207374696c6c206e65656420746f206d616b652061206d6f7660008201527f6500000000000000000000000000000000000000000000000000000000000000602082015250565b7f426174746c6520616c726561647920656e646564000000000000000000000000600082015250565b7f455243313135353a2061646472657373207a65726f206973206e6f742061207660008201527f616c6964206f776e657200000000000000000000000000000000000000000000602082015250565b7f416c726561647920696e20626174746c65000000000000000000000000000000600082015250565b7f506c6561736520526567697374657220506c6179657220466972737400000000600082015250565b7f426174746c6520646f65736e2774206578697374000000000000000000000000600082015250565b7f426174746c652068617320616c726561647920656e6465640000000000000000600082015250565b7f426174746c6520616c7265616479207374617274656421000000000000000000600082015250565b7f426174746c6520616c7265616479206578697374732100000000000000000000600082015250565b7f43686f6963652073686f756c64206265206569746865722031206f7220322100600082015250565b7f455243313135353a207472616e7366657220746f20746865207a65726f20616460008201527f6472657373000000000000000000000000000000000000000000000000000000602082015250565b7f506c6179657220616c7265616479207265676973746572656400000000000000600082015250565b7f4f6e6c7920706c617965722074776f2063616e206a6f696e206120626174746c60008201527f6500000000000000000000000000000000000000000000000000000000000000602082015250565b7f455243313135353a20696e73756666696369656e742062616c616e636520666f60008201527f72207472616e7366657200000000000000000000000000000000000000000000602082015250565b7f2e6a736f6e000000000000000000000000000000000000000000000000000000600082015250565b7f4f776e61626c653a2063616c6c6572206973206e6f7420746865206f776e6572600082015250565b7f426174746c6520646f65736e2774206578697374210000000000000000000000600082015250565b7f455243313135353a206275726e20616d6f756e74206578636565647320746f7460008201527f616c537570706c79000000000000000000000000000000000000000000000000602082015250565b7f596f7520617265206e6f7420696e207468697320626174746c65000000000000600082015250565b7f4d616e61206e6f742073756666696369656e7420666f722061747461636b696e60008201527f6721000000000000000000000000000000000000000000000000000000000000602082015250565b7f455243313135353a2073657474696e6720617070726f76616c2073746174757360008201527f20666f722073656c660000000000000000000000000000000000000000000000602082015250565b7f455243313135353a206163636f756e747320616e6420696473206c656e67746860008201527f206d69736d617463680000000000000000000000000000000000000000000000602082015250565b7f426174746c65206e6f7420737461727465642e20506c656173652074656c6c2060008201527f616e6f7468657220706c6179657220746f206a6f696e2074686520626174746c60208201527f6500000000000000000000000000000000000000000000000000000000000000604082015250565b7f455243313135353a2069647320616e6420616d6f756e7473206c656e6774682060008201527f6d69736d61746368000000000000000000000000000000000000000000000000602082015250565b7f4f6e6c7920706c617965727320696e207468697320626174746c652063616e2060008201527f6d616b652061206d6f7665000000000000000000000000000000000000000000602082015250565b7f455243313135353a206d696e7420746f20746865207a65726f2061646472657360008201527f7300000000000000000000000000000000000000000000000000000000000000602082015250565b7f506c6179657220697320696e206120626174746c650000000000000000000000600082015250565b7f596f7520617265206e6f7420696e207468697320626174746c65210000000000600082015250565b7f2f00000000000000000000000000000000000000000000000000000000000000600082015250565b7f506c6179657220646f65736e2774206578697374210000000000000000000000600082015250565b600060443d101561880057618883565b61880861777f565b60043d036004823e80513d602482011167ffffffffffffffff82111715618830575050618883565b808201805167ffffffffffffffff81111561884e5750505050618883565b80602083010160043d03850181111561886b575050505050618883565b61887a82602001850186617ccc565b82955050505050505b90565b6003811061889757618896617e5e565b5b50565b6188a381617bfc565b81146188ae57600080fd5b50565b6188ba81617b87565b81146188c557600080fd5b50565b6188d181617b9d565b81146188dc57600080fd5b50565b6188e881617c1d565b81146188f357600080fd5b50565b6188ff81617c27565b811461890a57600080fd5b5056fea26474726f6e58221220ba5412b05c364bd7eb9d0c7f644c2fa6571c56442352b14513c2ab545809b98d64736f6c63430008060033",
  "source": "// SPDX-License-Identifier: MIT\npragma solidity >=0.4.22 <0.9.0;\n\n// contract Migrations {\n//   address public owner = msg.sender;\n//   uint public last_completed_migration;\n\n//   modifier restricted() {\n//     require(\n//       msg.sender == owner,\n//       \"This function is restricted to the contract's owner\"\n//     );\n//     _;\n//   }\n\n//   function setCompleted(uint completed) public restricted {\n//     last_completed_migration = completed;\n//   }\n// }\n\nimport \"@openzeppelin/contracts/token/ERC1155/ERC1155.sol\";\nimport \"@openzeppelin/contracts/access/Ownable.sol\";\nimport \"@openzeppelin/contracts/token/ERC1155/extensions/ERC1155Supply.sol\";\n\n/// @title Mutanto\n/// @notice This contract handles the token management and battle logic for the Mutanto game\n/// @notice Version 1.0.0\n/// @author Ava-Labs\n/// @author Julian Martinez\n/// @author Gabriel Cardona\n/// @author Raj Ranjan\n\ncontract Mutanto is ERC1155, Ownable, ERC1155Supply {\n    string public baseURI; // baseURI where token metadata is stored\n    uint256 public totalSupply; // Total number of tokens minted\n    uint256 public constant DEVIL = 0;\n    uint256 public constant GRIFFIN = 1;\n    uint256 public constant FIREBIRD = 2;\n    uint256 public constant KAMO = 3;\n    uint256 public constant KUKULKAN = 4;\n    uint256 public constant CELESTION = 5;\n\n    uint256 public constant MAX_ATTACK_DEFEND_STRENGTH = 10;\n\n    enum BattleStatus {\n        PENDING,\n        STARTED,\n        ENDED\n    }\n\n    /// @dev GameToken struct to store player token info\n    struct GameToken {\n        string name; /// @param name battle card name; set by player\n        uint256 id; /// @param id battle card token id; will be randomly generated\n        uint256 attackStrength; /// @param attackStrength battle card attack; generated randomly\n        uint256 defenseStrength; /// @param defenseStrength battle card defense; generated randomly\n    }\n\n    /// @dev Player struct to store player info\n    struct Player {\n        address playerAddress; /// @param playerAddress player wallet address\n        string playerName; /// @param playerName player name; set by player during registration\n        uint256 playerMana; /// @param playerMana player mana; affected by battle results\n        uint256 playerHealth; /// @param playerHealth player health; affected by battle results\n        bool inBattle; /// @param inBattle boolean to indicate if a player is in battle\n    }\n\n    /// @dev Battle struct to store battle info\n    struct Battle {\n        BattleStatus battleStatus; /// @param battleStatus enum to indicate battle status\n        bytes32 battleHash; /// @param battleHash a hash of the battle name\n        string name; /// @param name battle name; set by player who creates battle\n        address[2] players; /// @param players address array representing players in this battle\n        uint8[2] moves; /// @param moves uint array representing players' move\n        address winner; /// @param winner winner address\n    }\n\n    mapping(address => uint256) public playerInfo; // Mapping of player addresses to player index in the players array\n    mapping(address => uint256) public playerTokenInfo; // Mapping of player addresses to player token index in the gameTokens array\n    mapping(string => uint256) public battleInfo; // Mapping of battle name to battle index in the battles array\n\n    Player[] public players; // Array of players\n    GameToken[] public gameTokens; // Array of game tokens\n    Battle[] public battles; // Array of battles\n\n    function isPlayer(address addr) public view returns (bool) {\n        if (playerInfo[addr] == 0) {\n            return false;\n        } else {\n            return true;\n        }\n    }\n\n    function getPlayer(address addr) public view returns (Player memory) {\n        require(isPlayer(addr), \"Player doesn't exist!\");\n        return players[playerInfo[addr]];\n    }\n\n    function getAllPlayers() public view returns (Player[] memory) {\n        return players;\n    }\n\n    function isPlayerToken(address addr) public view returns (bool) {\n        if (playerTokenInfo[addr] == 0) {\n            return false;\n        } else {\n            return true;\n        }\n    }\n\n    function getPlayerToken(address addr)\n        public\n        view\n        returns (GameToken memory)\n    {\n        require(isPlayerToken(addr), \"Game token doesn't exist!\");\n        return gameTokens[playerTokenInfo[addr]];\n    }\n\n    function getAllPlayerTokens() public view returns (GameToken[] memory) {\n        return gameTokens;\n    }\n\n    // Battle getter function\n    function isBattle(string memory _name) public view returns (bool) {\n        if (battleInfo[_name] == 0) {\n            return false;\n        } else {\n            return true;\n        }\n    }\n\n    function getBattle(string memory _name)\n        public\n        view\n        returns (Battle memory)\n    {\n        require(isBattle(_name), \"Battle doesn't exist!\");\n        return battles[battleInfo[_name]];\n    }\n\n    function getAllBattles() public view returns (Battle[] memory) {\n        return battles;\n    }\n\n    function updateBattle(string memory _name, Battle memory _newBattle)\n        private\n    {\n        require(isBattle(_name), \"Battle doesn't exist\");\n        battles[battleInfo[_name]] = _newBattle;\n    }\n\n    // Events\n    event NewPlayer(address indexed owner, string name);\n    event NewBattle(\n        string battleName,\n        address indexed player1,\n        address indexed player2\n    );\n    event BattleEnded(\n        string battleName,\n        address indexed winner,\n        address indexed loser\n    );\n    event BattleMove(string indexed battleName, bool indexed isFirstMove);\n    event NewGameToken(\n        address indexed owner,\n        uint256 id,\n        uint256 attackStrength,\n        uint256 defenseStrength\n    );\n    event RoundEnded(address[2] damagedPlayers);\n\n    /// @dev Initializes the contract by setting a `metadataURI` to the token collection\n    /// @param _metadataURI baseURI where token metadata is stored\n    constructor(string memory _metadataURI) ERC1155(_metadataURI) {\n        baseURI = _metadataURI; // Set baseURI\n        initialize();\n    }\n\n    function setURI(string memory newuri) public onlyOwner {\n        _setURI(newuri);\n    }\n\n    function initialize() private {\n        gameTokens.push(GameToken(\"\", 0, 0, 0));\n        players.push(Player(address(0), \"\", 0, 0, false));\n        battles.push(\n            Battle(\n                BattleStatus.PENDING,\n                bytes32(0),\n                \"\",\n                [address(0), address(0)],\n                [0, 0],\n                address(0)\n            )\n        );\n    }\n\n    /// @dev Registers a player\n    /// @param _name player name; set by player\n    function registerPlayer(string memory _name, string memory _gameTokenName)\n        external\n    {\n        require(!isPlayer(msg.sender), \"Player already registered\"); // Require that player is not already registered\n\n        uint256 _id = players.length;\n        players.push(Player(msg.sender, _name, 10, 25, false)); // Adds player to players array\n        playerInfo[msg.sender] = _id; // Creates player info mapping\n\n        createRandomGameToken(_gameTokenName);\n\n        emit NewPlayer(msg.sender, _name); // Emits NewPlayer event\n    }\n\n    /// @dev internal function to generate random number; used for Battle Card Attack and Defense Strength\n    function _createRandomNum(uint256 _max, address _sender)\n        internal\n        view\n        returns (uint256 randomValue)\n    {\n        uint256 randomNum = uint256(\n            keccak256(\n                abi.encodePacked(block.difficulty, block.timestamp, _sender)\n            )\n        );\n\n        randomValue = randomNum % _max;\n        if (randomValue == 0) {\n            randomValue = _max / 2;\n        }\n\n        return randomValue;\n    }\n\n    /// @dev internal function to create a new Battle Card\n    function _createGameToken(string memory _name)\n        internal\n        returns (GameToken memory)\n    {\n        uint256 randAttackStrength = _createRandomNum(\n            MAX_ATTACK_DEFEND_STRENGTH,\n            msg.sender\n        );\n        uint256 randDefenseStrength = MAX_ATTACK_DEFEND_STRENGTH -\n            randAttackStrength;\n\n        uint8 randId = uint8(\n            uint256(keccak256(abi.encodePacked(block.timestamp, msg.sender))) %\n                100\n        );\n        randId = randId % 6;\n        if (randId == 0) {\n            randId++;\n        }\n\n        GameToken memory newGameToken = GameToken(\n            _name,\n            randId,\n            randAttackStrength,\n            randDefenseStrength\n        );\n\n        uint256 _id = gameTokens.length;\n        gameTokens.push(newGameToken);\n        playerTokenInfo[msg.sender] = _id;\n\n        _mint(msg.sender, randId, 1, \"0x0\");\n        totalSupply++;\n\n        emit NewGameToken(\n            msg.sender,\n            randId,\n            randAttackStrength,\n            randDefenseStrength\n        );\n        return newGameToken;\n    }\n\n    /// @dev Creates a new game token\n    /// @param _name game token name; set by player\n    function createRandomGameToken(string memory _name) public {\n        require(!getPlayer(msg.sender).inBattle, \"Player is in a battle\"); // Require that player is not already in a battle\n        require(isPlayer(msg.sender), \"Please Register Player First\"); // Require that the player is registered\n\n        _createGameToken(_name); // Creates game token\n    }\n\n    function getTotalSupply() external view returns (uint256) {\n        return totalSupply;\n    }\n\n    /// @dev Creates a new battle\n    /// @param _name battle name; set by player\n    function createBattle(string memory _name)\n        external\n        returns (Battle memory)\n    {\n        require(isPlayer(msg.sender), \"Please Register Player First\"); // Require that the player is registered\n        require(!isBattle(_name), \"Battle already exists!\"); // Require battle with same name should not exist\n\n        bytes32 battleHash = keccak256(abi.encode(_name));\n\n        Battle memory _battle = Battle(\n            BattleStatus.PENDING, // Battle pending\n            battleHash, // Battle hash\n            _name, // Battle name\n            [msg.sender, address(0)], // player addresses; player 2 empty until they joins battle\n            [0, 0], // moves for each player\n            address(0) // winner address; empty until battle ends\n        );\n\n        uint256 _id = battles.length;\n        battleInfo[_name] = _id;\n        battles.push(_battle);\n\n        return _battle;\n    }\n\n    /// @dev Player joins battle\n    /// @param _name battle name; name of battle player wants to join\n    function joinBattle(string memory _name) external returns (Battle memory) {\n        Battle memory _battle = getBattle(_name);\n\n        require(\n            _battle.battleStatus == BattleStatus.PENDING,\n            \"Battle already started!\"\n        ); // Require that battle has not started\n        require(\n            _battle.players[0] != msg.sender,\n            \"Only player two can join a battle\"\n        ); // Require that player 2 is joining the battle\n        require(!getPlayer(msg.sender).inBattle, \"Already in battle\"); // Require that player is not already in a battle\n\n        _battle.battleStatus = BattleStatus.STARTED;\n        _battle.players[1] = msg.sender;\n        updateBattle(_name, _battle);\n\n        players[playerInfo[_battle.players[0]]].inBattle = true;\n        players[playerInfo[_battle.players[1]]].inBattle = true;\n\n        emit NewBattle(_battle.name, _battle.players[0], msg.sender); // Emits NewBattle event\n        return _battle;\n    }\n\n    // Read battle move info for player 1 and player 2\n    function getBattleMoves(string memory _battleName)\n        public\n        view\n        returns (uint256 P1Move, uint256 P2Move)\n    {\n        Battle memory _battle = getBattle(_battleName);\n\n        P1Move = _battle.moves[0];\n        P2Move = _battle.moves[1];\n\n        return (P1Move, P2Move);\n    }\n\n    function _registerPlayerMove(\n        uint256 _player,\n        uint8 _choice,\n        string memory _battleName\n    ) internal {\n        require(\n            _choice == 1 || _choice == 2,\n            \"Choice should be either 1 or 2!\"\n        );\n        require(\n            _choice == 1 ? getPlayer(msg.sender).playerMana >= 3 : true,\n            \"Mana not sufficient for attacking!\"\n        );\n        battles[battleInfo[_battleName]].moves[_player] = _choice;\n    }\n\n    // User chooses attack or defense move for battle card\n    function attackOrDefendChoice(uint8 _choice, string memory _battleName)\n        external\n    {\n        Battle memory _battle = getBattle(_battleName);\n\n        require(\n            _battle.battleStatus == BattleStatus.STARTED,\n            \"Battle not started. Please tell another player to join the battle\"\n        ); // Require that battle has started\n        require(\n            _battle.battleStatus != BattleStatus.ENDED,\n            \"Battle has already ended\"\n        ); // Require that battle has not ended\n        require(\n            msg.sender == _battle.players[0] ||\n                msg.sender == _battle.players[1],\n            \"You are not in this battle\"\n        ); // Require that player is in the battle\n\n        require(\n            _battle.moves[_battle.players[0] == msg.sender ? 0 : 1] == 0,\n            \"You have already made a move!\"\n        );\n\n        _registerPlayerMove(\n            _battle.players[0] == msg.sender ? 0 : 1,\n            _choice,\n            _battleName\n        );\n\n        _battle = getBattle(_battleName);\n        uint _movesLeft = 2 -\n            (_battle.moves[0] == 0 ? 0 : 1) -\n            (_battle.moves[1] == 0 ? 0 : 1);\n        emit BattleMove(_battleName, _movesLeft == 1 ? true : false);\n\n        if (_movesLeft == 0) {\n            _awaitBattleResults(_battleName);\n        }\n    }\n\n    // Awaits battle results\n    function _awaitBattleResults(string memory _battleName) internal {\n        Battle memory _battle = getBattle(_battleName);\n\n        require(\n            msg.sender == _battle.players[0] ||\n                msg.sender == _battle.players[1],\n            \"Only players in this battle can make a move\"\n        );\n\n        require(\n            _battle.moves[0] != 0 && _battle.moves[1] != 0,\n            \"Players still need to make a move\"\n        );\n\n        _resolveBattle(_battle);\n    }\n\n    struct P {\n        uint index;\n        uint move;\n        uint health;\n        uint attack;\n        uint defense;\n    }\n\n    /// @dev Resolve battle function to determine winner and loser of battle\n    /// @param _battle battle; battle to resolve\n    function _resolveBattle(Battle memory _battle) internal {\n        P memory p1 = P(\n            playerInfo[_battle.players[0]],\n            _battle.moves[0],\n            getPlayer(_battle.players[0]).playerHealth,\n            getPlayerToken(_battle.players[0]).attackStrength,\n            getPlayerToken(_battle.players[0]).defenseStrength\n        );\n\n        P memory p2 = P(\n            playerInfo[_battle.players[1]],\n            _battle.moves[1],\n            getPlayer(_battle.players[1]).playerHealth,\n            getPlayerToken(_battle.players[1]).attackStrength,\n            getPlayerToken(_battle.players[1]).defenseStrength\n        );\n\n        address[2] memory _damagedPlayers = [address(0), address(0)];\n\n        if (p1.move == 1 && p2.move == 1) {\n            if (p1.attack >= p2.health) {\n                _endBattle(_battle.players[0], _battle);\n            } else if (p2.attack >= p1.health) {\n                _endBattle(_battle.players[1], _battle);\n            } else {\n                players[p1.index].playerHealth -= p2.attack;\n                players[p2.index].playerHealth -= p1.attack;\n\n                players[p1.index].playerMana -= 3;\n                players[p2.index].playerMana -= 3;\n\n                // Both player's health damaged\n                _damagedPlayers = _battle.players;\n            }\n        } else if (p1.move == 1 && p2.move == 2) {\n            uint256 PHAD = p2.health + p2.defense;\n            if (p1.attack >= PHAD) {\n                _endBattle(_battle.players[0], _battle);\n            } else {\n                uint256 healthAfterAttack;\n\n                if (p2.defense > p1.attack) {\n                    healthAfterAttack = p2.health;\n                } else {\n                    healthAfterAttack = PHAD - p1.attack;\n\n                    // Player 2 health damaged\n                    _damagedPlayers[0] = _battle.players[1];\n                }\n\n                players[p2.index].playerHealth = healthAfterAttack;\n\n                players[p1.index].playerMana -= 3;\n                players[p2.index].playerMana += 3;\n            }\n        } else if (p1.move == 2 && p2.move == 1) {\n            uint256 PHAD = p1.health + p1.defense;\n            if (p2.attack >= PHAD) {\n                _endBattle(_battle.players[1], _battle);\n            } else {\n                uint256 healthAfterAttack;\n\n                if (p1.defense > p2.attack) {\n                    healthAfterAttack = p1.health;\n                } else {\n                    healthAfterAttack = PHAD - p2.attack;\n\n                    // Player 1 health damaged\n                    _damagedPlayers[0] = _battle.players[0];\n                }\n\n                players[p1.index].playerHealth = healthAfterAttack;\n\n                players[p1.index].playerMana += 3;\n                players[p2.index].playerMana -= 3;\n            }\n        } else if (p1.move == 2 && p2.move == 2) {\n            players[p1.index].playerMana += 3;\n            players[p2.index].playerMana += 3;\n        }\n\n        emit RoundEnded(_damagedPlayers);\n\n        // Reset moves to 0\n        _battle.moves[0] = 0;\n        _battle.moves[1] = 0;\n        updateBattle(_battle.name, _battle);\n\n        // Reset random attack and defense strength\n        uint256 _randomAttackStrengthPlayer1 = _createRandomNum(\n            MAX_ATTACK_DEFEND_STRENGTH,\n            _battle.players[0]\n        );\n        gameTokens[playerTokenInfo[_battle.players[0]]]\n            .attackStrength = _randomAttackStrengthPlayer1;\n        gameTokens[playerTokenInfo[_battle.players[0]]].defenseStrength =\n            MAX_ATTACK_DEFEND_STRENGTH -\n            _randomAttackStrengthPlayer1;\n\n        uint256 _randomAttackStrengthPlayer2 = _createRandomNum(\n            MAX_ATTACK_DEFEND_STRENGTH,\n            _battle.players[1]\n        );\n        gameTokens[playerTokenInfo[_battle.players[1]]]\n            .attackStrength = _randomAttackStrengthPlayer2;\n        gameTokens[playerTokenInfo[_battle.players[1]]].defenseStrength =\n            MAX_ATTACK_DEFEND_STRENGTH -\n            _randomAttackStrengthPlayer2;\n    }\n\n    function quitBattle(string memory _battleName) public {\n        Battle memory _battle = getBattle(_battleName);\n        require(\n            _battle.players[0] == msg.sender ||\n                _battle.players[1] == msg.sender,\n            \"You are not in this battle!\"\n        );\n\n        _battle.players[0] == msg.sender\n            ? _endBattle(_battle.players[1], _battle)\n            : _endBattle(_battle.players[0], _battle);\n    }\n\n    /// @dev internal function to end the battle\n    /// @param battleEnder winner address\n    /// @param _battle battle; taken from attackOrDefend function\n    function _endBattle(address battleEnder, Battle memory _battle)\n        internal\n        returns (Battle memory)\n    {\n        require(\n            _battle.battleStatus != BattleStatus.ENDED,\n            \"Battle already ended\"\n        ); // Require that battle has not ended\n\n        _battle.battleStatus = BattleStatus.ENDED;\n        _battle.winner = battleEnder;\n        updateBattle(_battle.name, _battle);\n\n        uint p1 = playerInfo[_battle.players[0]];\n        uint p2 = playerInfo[_battle.players[1]];\n\n        players[p1].inBattle = false;\n        players[p1].playerHealth = 25;\n        players[p1].playerMana = 10;\n\n        players[p2].inBattle = false;\n        players[p2].playerHealth = 25;\n        players[p2].playerMana = 10;\n\n        address _battleLoser = battleEnder == _battle.players[0]\n            ? _battle.players[1]\n            : _battle.players[0];\n\n        emit BattleEnded(_battle.name, battleEnder, _battleLoser); // Emits BattleEnded event\n\n        return _battle;\n    }\n\n    // Turns uint256 into string\n    function uintToStr(uint256 _i)\n        internal\n        pure\n        returns (string memory _uintAsString)\n    {\n        if (_i == 0) {\n            return \"0\";\n        }\n        uint256 j = _i;\n        uint256 len;\n        while (j != 0) {\n            len++;\n            j /= 10;\n        }\n        bytes memory bstr = new bytes(len);\n        uint256 k = len;\n        while (_i != 0) {\n            k = k - 1;\n            uint8 temp = (48 + uint8(_i - (_i / 10) * 10));\n            bytes1 b1 = bytes1(temp);\n            bstr[k] = b1;\n            _i /= 10;\n        }\n        return string(bstr);\n    }\n\n    // Token URI getter function\n    function tokenURI(uint256 tokenId) public view returns (string memory) {\n        return\n            string(abi.encodePacked(baseURI, \"/\", uintToStr(tokenId), \".json\"));\n    }\n\n    // The following functions are overrides required by Solidity.\n    function _beforeTokenTransfer(\n        address operator,\n        address from,\n        address to,\n        uint256[] memory ids,\n        uint256[] memory amounts,\n        bytes memory data\n    ) internal override(ERC1155, ERC1155Supply) {\n        super._beforeTokenTransfer(operator, from, to, ids, amounts, data);\n    }\n}\n",
  "sourcePath": "C:/Users/rismv/Documents/Development/Web Development/Projects/tron_hackathon/contracts/Migrations.sol",
  "compiler": {
    "name": "solc",
    "version": "0.8.6+commit.0e36fba0.mod.Emscripten.clang"
  },
  "schemaVersion": "2.0.1",
  "updatedAt": "2022-11-08T10:04:44.752Z"
}